{"contracts/ClaimContract.sol":{"ClaimContract":{"abi":[{"inputs":[{"internalType":"address payable","name":"_lateClaimBeneficorAddressReinsertPot","type":"address"},{"internalType":"address payable","name":"_lateClaimBeneficorAddressDAO","type":"address"},{"internalType":"bytes","name":"_prefixStr","type":"bytes"},{"internalType":"uint256","name":"_dilute_s1_75_timestamp","type":"uint256"},{"internalType":"uint256","name":"_dilute_s2_50_timestamp","type":"uint256"},{"internalType":"uint256","name":"_dilute_s3_0_timestamp","type":"uint256"}],"stateMutability":"nonpayable","type":"constructor"},{"inputs":[],"name":"ClaimErrorNoBalance","type":"error"},{"inputs":[],"name":"ClaimErrorSignatureMissmatch","type":"error"},{"inputs":[],"name":"CryptoInvalidV","type":"error"},{"inputs":[],"name":"DiluteAllreadyHappened","type":"error"},{"inputs":[],"name":"DiluteTimeNotReached","type":"error"},{"inputs":[],"name":"FillErrorAccountAlreadyDefined","type":"error"},{"inputs":[],"name":"FillErrorAccountZero","type":"error"},{"inputs":[],"name":"FillErrorBalanceDoubleFill","type":"error"},{"inputs":[],"name":"FillErrorBalanceSumError","type":"error"},{"inputs":[],"name":"FillErrorBalanceZero","type":"error"},{"inputs":[],"name":"FillErrorNumberOfAccountsMissmatch","type":"error"},{"inputs":[],"name":"FillErrorValueRequired","type":"error"},{"inputs":[],"name":"InitializationErrorDaoAddressNull","type":"error"},{"inputs":[],"name":"InitializationErrorDiluteTimestamp1","type":"error"},{"inputs":[],"name":"InitializationErrorDiluteTimestamp2","type":"error"},{"inputs":[],"name":"InitializationErrorDiluteTimestamp3","type":"error"},{"inputs":[],"name":"InitializationErrorReinsertPotAddressNull","type":"error"},{"inputs":[],"name":"PredecessorDiluteEventNotHappened","type":"error"},{"anonymous":false,"inputs":[{"indexed":true,"internalType":"bytes20","name":"_from","type":"bytes20"},{"indexed":false,"internalType":"address","name":"_to","type":"address"},{"indexed":false,"internalType":"uint256","name":"amount","type":"uint256"},{"indexed":false,"internalType":"uint256","name":"_nominator","type":"uint256"},{"indexed":false,"internalType":"uint256","name":"_denominator","type":"uint256"}],"name":"Claim","type":"event"},{"inputs":[],"name":"LEAP_YEAR_IN_SECONDS","outputs":[{"internalType":"uint256","name":"","type":"uint256"}],"stateMutability":"view","type":"function"},{"inputs":[],"name":"YEAR_IN_SECONDS","outputs":[{"internalType":"uint256","name":"","type":"uint256"}],"stateMutability":"view","type":"function"},{"inputs":[{"internalType":"bytes20","name":"","type":"bytes20"}],"name":"balances","outputs":[{"internalType":"uint256","name":"","type":"uint256"}],"stateMutability":"view","type":"function"},{"inputs":[{"internalType":"bytes","name":"data","type":"bytes"}],"name":"calcHash256","outputs":[{"internalType":"bytes32","name":"","type":"bytes32"}],"stateMutability":"pure","type":"function"},{"inputs":[{"internalType":"address","name":"_addr","type":"address"}],"name":"calculateAddressString","outputs":[{"internalType":"bytes","name":"addrStr","type":"bytes"}],"stateMutability":"pure","type":"function"},{"inputs":[{"internalType":"address payable","name":"_targetAdress","type":"address"},{"internalType":"bytes","name":"_postfix","type":"bytes"},{"internalType":"bytes32","name":"_pubKeyX","type":"bytes32"},{"internalType":"bytes32","name":"_pubKeyY","type":"bytes32"},{"internalType":"uint8","name":"_v","type":"uint8"},{"internalType":"bytes32","name":"_r","type":"bytes32"},{"internalType":"bytes32","name":"_s","type":"bytes32"}],"name":"claim","outputs":[],"stateMutability":"nonpayable","type":"function"},{"inputs":[{"internalType":"address","name":"_claimToAddr","type":"address"},{"internalType":"bytes","name":"_postFix","type":"bytes"},{"internalType":"bytes32","name":"_pubKeyX","type":"bytes32"},{"internalType":"bytes32","name":"_pubKeyY","type":"bytes32"},{"internalType":"uint8","name":"_v","type":"uint8"},{"internalType":"bytes32","name":"_r","type":"bytes32"},{"internalType":"bytes32","name":"_s","type":"bytes32"}],"name":"claimMessageMatchesSignature","outputs":[{"internalType":"bool","name":"","type":"bool"}],"stateMutability":"view","type":"function"},{"inputs":[{"internalType":"address","name":"_claimToAddr","type":"address"},{"internalType":"bytes","name":"_postfix","type":"bytes"}],"name":"createClaimMessage","outputs":[{"internalType":"bytes","name":"","type":"bytes"}],"stateMutability":"view","type":"function"},{"inputs":[],"name":"deploymentTimestamp","outputs":[{"internalType":"uint256","name":"","type":"uint256"}],"stateMutability":"view","type":"function"},{"inputs":[],"name":"dilute1","outputs":[{"internalType":"uint256","name":"","type":"uint256"}],"stateMutability":"nonpayable","type":"function"},{"inputs":[],"name":"dilute2","outputs":[{"internalType":"uint256","name":"","type":"uint256"}],"stateMutability":"nonpayable","type":"function"},{"inputs":[],"name":"dilute3","outputs":[{"internalType":"uint256","name":"","type":"uint256"}],"stateMutability":"nonpayable","type":"function"},{"inputs":[],"name":"dilute_s1_75_timestamp","outputs":[{"internalType":"uint256","name":"","type":"uint256"}],"stateMutability":"view","type":"function"},{"inputs":[],"name":"dilute_s2_50_timestamp","outputs":[{"internalType":"uint256","name":"","type":"uint256"}],"stateMutability":"view","type":"function"},{"inputs":[],"name":"dilute_s3_0_timestamp","outputs":[{"internalType":"uint256","name":"","type":"uint256"}],"stateMutability":"view","type":"function"},{"inputs":[],"name":"dilution_s1_75_executed","outputs":[{"internalType":"bool","name":"","type":"bool"}],"stateMutability":"view","type":"function"},{"inputs":[],"name":"dilution_s2_50_executed","outputs":[{"internalType":"bool","name":"","type":"bool"}],"stateMutability":"view","type":"function"},{"inputs":[],"name":"dilution_s3_0_executed","outputs":[{"internalType":"bool","name":"","type":"bool"}],"stateMutability":"view","type":"function"},{"inputs":[{"internalType":"bytes20[]","name":"_accounts","type":"bytes20[]"},{"internalType":"uint256[]","name":"_balances","type":"uint256[]"}],"name":"fill","outputs":[],"stateMutability":"payable","type":"function"},{"inputs":[],"name":"getCurrentDilutedClaimFactor","outputs":[{"internalType":"uint256","name":"nominator","type":"uint256"},{"internalType":"uint256","name":"denominator","type":"uint256"}],"stateMutability":"view","type":"function"},{"inputs":[],"name":"getDilutionTimestamp1","outputs":[{"internalType":"uint256","name":"","type":"uint256"}],"stateMutability":"view","type":"function"},{"inputs":[],"name":"getDilutionTimestamp2","outputs":[{"internalType":"uint256","name":"","type":"uint256"}],"stateMutability":"view","type":"function"},{"inputs":[],"name":"getDilutionTimestamp3","outputs":[{"internalType":"uint256","name":"","type":"uint256"}],"stateMutability":"view","type":"function"},{"inputs":[{"internalType":"address","name":"_claimToAddr","type":"address"},{"internalType":"bytes","name":"_postfix","type":"bytes"}],"name":"getHashForClaimMessage","outputs":[{"internalType":"bytes32","name":"","type":"bytes32"}],"stateMutability":"view","type":"function"},{"inputs":[],"name":"lateClaimBeneficorAddressDAO","outputs":[{"internalType":"address payable","name":"","type":"address"}],"stateMutability":"view","type":"function"},{"inputs":[],"name":"lateClaimBeneficorAddressReinsertPot","outputs":[{"internalType":"address payable","name":"","type":"address"}],"stateMutability":"view","type":"function"},{"inputs":[],"name":"prefixStr","outputs":[{"internalType":"bytes","name":"","type":"bytes"}],"stateMutability":"view","type":"function"},{"inputs":[{"internalType":"bytes32","name":"pubKeyX","type":"bytes32"},{"internalType":"bytes32","name":"pubKeyY","type":"bytes32"}],"name":"pubKeyToEthAddress","outputs":[{"internalType":"address","name":"","type":"address"}],"stateMutability":"pure","type":"function"},{"inputs":[{"internalType":"bytes32","name":"_publicKeyX","type":"bytes32"},{"internalType":"bytes32","name":"_publicKeyY","type":"bytes32"}],"name":"publicKeyToBitcoinAddress","outputs":[{"internalType":"bytes20","name":"rawBtcAddress","type":"bytes20"}],"stateMutability":"pure","type":"function"}],"evm":{"bytecode":{"linkReferences":{},"object":"60806040523480156200001157600080fd5b5060405162003dc638038062003dc68339818101604052810190620000379190620005b8565b620000536775b9b59a28228b1f60c01b6200057f60201b60201c565b6200006f67e156ba03a17724d860c01b6200057f60201b60201c565b6200008b67e9e9e0b9bac9841660c01b6200057f60201b60201c565b600073ffffffffffffffffffffffffffffffffffffffff168673ffffffffffffffffffffffffffffffffffffffff16036200010e57620000dc678db2e843b26d874c60c01b6200057f60201b60201c565b6040517f125f3ccd00000000000000000000000000000000000000000000000000000000815260040160405180910390fd5b6200012a6720afebd31c129fdf60c01b6200057f60201b60201c565b6200014667f51cd83bd5a0d84b60c01b6200057f60201b60201c565b620001626747ee99199091329660c01b6200057f60201b60201c565b600073ffffffffffffffffffffffffffffffffffffffff168573ffffffffffffffffffffffffffffffffffffffff1603620001e557620001b36709f7be0bee54443060c01b6200057f60201b60201c565b6040517f9e719f5100000000000000000000000000000000000000000000000000000000815260040160405180910390fd5b62000201674ae9a29ff7bc3e0f60c01b6200057f60201b60201c565b6200021d671e0ce1f814d8796160c01b6200057f60201b60201c565b62000239673d6ba77db026784860c01b6200057f60201b60201c565b4283116200028f576200025d678cb9702596df49ac60c01b6200057f60201b60201c565b6040517f1b96329300000000000000000000000000000000000000000000000000000000815260040160405180910390fd5b620002ab67d25f4d96964dd3f960c01b6200057f60201b60201c565b620002c767526289c8740e800160c01b6200057f60201b60201c565b620002e3671c5fc7228201498e60c01b6200057f60201b60201c565b82821162000339576200030767b065e2a0a843befb60c01b6200057f60201b60201c565b6040517f7538bb6800000000000000000000000000000000000000000000000000000000815260040160405180910390fd5b6200035567e7d383886060c00360c01b6200057f60201b60201c565b6200037167d42dcf2de5bb093960c01b6200057f60201b60201c565b6200038d677c11397d4e7cfd6460c01b6200057f60201b60201c565b818111620003e357620003b1675dcdc4070c65aa9d60c01b6200057f60201b60201c565b6040517faec39bfd00000000000000000000000000000000000000000000000000000000815260040160405180910390fd5b620003ff677ab4237f63ddccd660c01b6200057f60201b60201c565b6200041b671aba7534b1b6967d60c01b6200057f60201b60201c565b85600660006101000a81548173ffffffffffffffffffffffffffffffffffffffff021916908373ffffffffffffffffffffffffffffffffffffffff16021790555062000478673ab54d9bd9ec8df160c01b6200057f60201b60201c565b84600760006101000a81548173ffffffffffffffffffffffffffffffffffffffff021916908373ffffffffffffffffffffffffffffffffffffffff160217905550620004d567cad8245e0c3078fc60c01b6200057f60201b60201c565b8360089081620004e6919062000792565b506200050367b79842303304fa3560c01b6200057f60201b60201c565b42600581905550620005266750ca425bda13a86660c01b6200057f60201b60201c565b826000819055506200054967fbaee0f27a03908960c01b6200057f60201b60201c565b816001819055506200056c6756dd1a2f9849f58060c01b6200057f60201b60201c565b806002819055505050505050506200086b565b50565b60008151905060018060a01b03811681146200059d57600080fd5b919050565b634e487b7160e01b600052604160045260246000fd5b60008060008060008060c08789031215620005d257600080fd5b620005dd8762000582565b95506020620005ee81890162000582565b9550604088015160018060401b03808211156200060a57600080fd5b818a0191508a601f8301126200061f57600080fd5b815181811115620006355762000634620005a2565b5b601f1960405181603f83601f8601160116810191508082108483111715620006625762000661620005a2565b5b816040528281528d868487010111156200067b57600080fd5b600093505b82841015620006a057858486010151868583010152858401935062000680565b6000868483010152809950505050505050606087015192506080870151915060a087015190509295509295509295565b60008160011c90506001821680620006e957607f821691505b6020821081036200070a57634e487b7160e01b600052602260045260246000fd5b50919050565b806000525060006020600020905090565b601f8211156200077357600081815260208120601f850160051c810160208610156200074b578190505b601f850160051c820191505b818110156200076f5782815560018101905062000757565b5050505b505050565b60008260011b6000198460031b1c19831617905092915050565b815160018060401b03811115620007ae57620007ad620005a2565b5b620007c681620007bf8454620006d0565b8462000721565b60006020809150601f831160018114620007ff5760008415620007ea578387015190505b620007f6858262000778565b86555062000863565b601f1984166200080f8662000710565b60005b8281101562000837578589015182556001820191508486019550848101905062000812565b508582101562000857578488015160001960f88860031b161c1981168255505b505060018460011b0185555b505050505050565b61354b806200087b6000396000f3fe6080604052600436106101c25760003560e01c80637847ea53116100f7578063a12a1b9f11610095578063e77b9d9b11610064578063e77b9d9b14610665578063f07e60a8146106a2578063f2113dc9146106be578063fa4ee75a146106fb576101c2565b8063a12a1b9f146105a7578063b28297f8146105e4578063bfc12c051461060f578063e20fb74f1461063a576101c2565b806384f0145e116100d157806384f0145e146104e95780638c86a100146105145780639365fe0b1461053f578063951e3c3b1461056a576101c2565b80637847ea53146104445780637b99c36d1461046f5780638019f8d2146104ac576101c2565b806334945f46116101645780635e3eabaa1161013e5780635e3eabaa1461039857806364e7c23a146103c357806367bb0f95146103ee5780636a01acad14610419576101c2565b806334945f46146103055780634e2ac9bf146103425780635b33bef31461036d576101c2565b80631b17d9a8116101a05780631b17d9a8146102465780632e5b74581461027157806330c1a7851461029d57806331b4cd47146102da576101c2565b8063069df228146101c75780630be89cc4146101f057806318b46f581461021b575b600080fd5b3480156101d357600080fd5b506101ee60048036038101906101e99190612d1e565b610726565b005b3480156101fc57600080fd5b50610205610aa4565b6040516102129190612da7565b60405180910390f35b34801561022757600080fd5b50610230610aca565b60405161023d9190612da7565b60405180910390f35b34801561025257600080fd5b5061025b610af0565b6040516102689190612dc0565b60405180910390f35b34801561027d57600080fd5b50610286610b03565b604051610294929190612dd3565b60405180910390f35b3480156102a957600080fd5b506102c460048036038101906102bf9190612deb565b610cc0565b6040516102d19190612e10565b60405180910390f35b3480156102e657600080fd5b506102ef610d32565b6040516102fc9190612e29565b60405180910390f35b34801561031157600080fd5b5061032c60048036038101906103279190612e3a565b610d38565b6040516103399190612e8c565b60405180910390f35b34801561034e57600080fd5b50610357610d90565b6040516103649190612e29565b60405180910390f35b34801561037957600080fd5b50610382611037565b60405161038f9190612e29565b60405180910390f35b3480156103a457600080fd5b506103ad611296565b6040516103ba9190612ec7565b60405180910390f35b3480156103cf57600080fd5b506103d8611324565b6040516103e59190612dc0565b60405180910390f35b3480156103fa57600080fd5b50610403611337565b6040516104109190612e29565b60405180910390f35b34801561042557600080fd5b5061042e61133f565b60405161043b9190612e29565b60405180910390f35b34801561045057600080fd5b50610459611385565b6040516104669190612e29565b60405180910390f35b34801561047b57600080fd5b5061049660048036038101906104919190612efc565b61138d565b6040516104a39190612e8c565b60405180910390f35b3480156104b857600080fd5b506104d360048036038101906104ce9190612f3a565b61148f565b6040516104e09190612dc0565b60405180910390f35b3480156104f557600080fd5b506104fe611699565b60405161050b9190612e29565b60405180910390f35b34801561052057600080fd5b506105296116df565b6040516105369190612e29565b60405180910390f35b34801561054b57600080fd5b506105546116e5565b6040516105619190612e29565b60405180910390f35b34801561057657600080fd5b50610591600480360381019061058c9190612e3a565b6119c6565b60405161059e9190612ec7565b60405180910390f35b3480156105b357600080fd5b506105ce60048036038101906105c99190612fc3565b611acb565b6040516105db9190612ec7565b60405180910390f35b3480156105f057600080fd5b506105f9611fa2565b6040516106069190612e29565b60405180910390f35b34801561061b57600080fd5b50610624611fe8565b6040516106319190612e29565b60405180910390f35b34801561064657600080fd5b5061064f611fee565b60405161065c9190612e29565b60405180910390f35b34801561067157600080fd5b5061068c60048036038101906106879190612deb565b611ff4565b6040516106999190612fea565b60405180910390f35b6106bc60048036038101906106b791906130cc565b612117565b005b3480156106ca57600080fd5b506106e560048036038101906106e09190613199565b6126bf565b6040516106f29190612e29565b60405180910390f35b34801561070757600080fd5b506107106126d7565b60405161071d9190612dc0565b60405180910390f35b61073a67fa1831453465bc0b60c01b6126ea565b61074e6723ad2312276b9b7660c01b6126ea565b610762675331250253d698f460c01b6126ea565b600061076e8686611ff4565b905061078467a84687e8192f7bab60c01b6126ea565b61079867253ceb2717ffe26a60c01b6126ea565b600060036000836bffffffffffffffffffffffff19166bffffffffffffffffffffffff191681526020019081526020016000205490506107e267de244d662875f6a960c01b6126ea565b6107f667c9b7727c657fc7f760c01b6126ea565b600081036108445761081267f8dc57f8331c001f60c01b6126ea565b6040517f80b71a9600000000000000000000000000000000000000000000000000000000815260040160405180910390fd5b6108586754669c8ec3b4203d60c01b6126ea565b61086c67254f5bd170cfd41160c01b6126ea565b610880675d734ed0e37656a560c01b6126ea565b61088f8989898989898961148f565b6108d9576108a7673c2f7ac131c8808d60c01b6126ea565b6040517f5d7ed0c700000000000000000000000000000000000000000000000000000000815260040160405180910390fd5b6108ed67fc25ed55cbed785d60c01b6126ea565b61090167c8b17612d402f94160c01b6126ea565b61091567da5538b6f04b0ae060c01b6126ea565b600080610920610b03565b915091506109386734a95bf9da14664660c01b6126ea565b61094c675a8ccc4a8354d82c60c01b6126ea565b600081838561095b91906131d2565b61096591906131f4565b905061097b671e43d3b7b8d7b36660c01b6126ea565b600060036000876bffffffffffffffffffffffff19166bffffffffffffffffffffffff19168152602001908152602001600020819055506109c667991945b6d81b1a9760c01b6126ea565b6109da670dddb802c8c9c72060c01b6126ea565b8b73ffffffffffffffffffffffffffffffffffffffff166108fc829081150290604051600060405180830381858888f19350505050158015610a20573d6000803e3d6000fd5b50610a3567669b8d3dddd1cb8260c01b6126ea565b610a4967bb26999b341875f660c01b6126ea565b846bffffffffffffffffffffffff19167f87263350249c13bda2939c89dcb517d838e9f0c19d1e9546de822a2d75e2204b8d838686604051610a8e949392919061321c565b60405180910390a2505050505050505050505050565b600660009054906101000a900473ffffffffffffffffffffffffffffffffffffffff1681565b600760009054906101000a900473ffffffffffffffffffffffffffffffffffffffff1681565b600460009054906101000a900460ff1681565b600080610b1a6782036497ed8799a960c01b6126ea565b610b2e673292b8695b3ed5ac60c01b6126ea565b610b4267f55d12ab270a29ac60c01b6126ea565b600460009054906101000a900460ff16610b9e57610b6a67b8140c7967db27b560c01b6126ea565b610b7e6719403d7e5eff20cb60c01b6126ea565b610b926722af68c675cddba460c01b6126ea565b60048091509150610cbc565b610bb267253a9bf21cd8f92e60c01b6126ea565b610bc667fafc3d654435cc2260c01b6126ea565b600460019054906101000a900460ff16610c2357610bee67faa5418c706130f260c01b6126ea565b610c026758b4184385149e1060c01b6126ea565b610c166758a2dc1334bd0c4a60c01b6126ea565b6003600491509150610cbc565b610c366614dcb4b4bc36ad60c01b6126ea565b610c4a67c95529db7ca7569d60c01b6126ea565b600460029054906101000a900460ff16610ca757610c7267eb5a3b27a7d991f560c01b6126ea565b610c86674ca1cc1a9057aa1560c01b6126ea565b610c9a67c83061f9d007646360c01b6126ea565b6002600491509150610cbc565b610cbb679c172ba18ffb96f860c01b6126ea565b5b9091565b6000610cd667a402a7083735827a60c01b6126ea565b610cea6757740b5de78f286660c01b6126ea565b610cfe67204fcbb27365fa4960c01b6126ea565b8282604051602001610d1192919061324a565b6040516020818303038152906040528051906020012060001c905092915050565b60015481565b6000610d4e67e4f7cee7dcc1e3a760c01b6126ea565b610d6267c09fb6ff6c1503c560c01b6126ea565b610d76679f383363deca6cd660c01b6126ea565b610d88610d8384846119c6565b61138d565b905092915050565b6000610da667040b6bd68d8db78560c01b6126ea565b610dba670ae8f8fc8755936660c01b6126ea565b610dce67a4a18a92ae2779bd60c01b6126ea565b610dd6611699565b421015610e2357610df167ba016b27e55b7d1f60c01b6126ea565b6040517f153d51b900000000000000000000000000000000000000000000000000000000815260040160405180910390fd5b610e3767970d2b89ecc0a44660c01b6126ea565b610e4b67a55fcdceead29bf960c01b6126ea565b610e5f67071874cb9a0a645a60c01b6126ea565b600460019054906101000a900460ff16610eb957610e8767468cda73e34b8ec760c01b6126ea565b6040517f1e5a53d300000000000000000000000000000000000000000000000000000000815260040160405180910390fd5b610ecd67f550c98a35cb929b60c01b6126ea565b610ee167e83e8eb11c60e0ee60c01b6126ea565b610ef567c141c782ea31d6be60c01b6126ea565b600460029054906101000a900460ff1615610f5057610f1e67d2d11a4fc47297bc60c01b6126ea565b6040517f598347c500000000000000000000000000000000000000000000000000000000815260040160405180910390fd5b610f64677cf9bdc6ed0d8fb460c01b6126ea565b610f7867cf36ca99cdcf8c5b60c01b6126ea565b6001600460026101000a81548160ff021916908315150217905550610fa767b253c335bd8ba01160c01b6126ea565b610fbb67b5dca7d89fa0a06660c01b6126ea565b60003073ffffffffffffffffffffffffffffffffffffffff16319050610feb67034143547cc9547760c01b6126ea565b610fff679b5314367745548d60c01b6126ea565b611008816126ed565b61101c67fa73597083e6e97d60c01b6126ea565b61103067034a98ac66dc297860c01b6126ea565b8091505090565b600061104d67465bdf24c39b60bc60c01b6126ea565b61106167893ee43bda015af960c01b6126ea565b6110756710b80a0af34bf99560c01b6126ea565b61107d611fa2565b4210156110ca576110986712a2426edb53ea8960c01b6126ea565b6040517f153d51b900000000000000000000000000000000000000000000000000000000815260040160405180910390fd5b6110de67746c8be03ddb35ce60c01b6126ea565b6110f267c5da25909c03837b60c01b6126ea565b61110667cb47b2e04fa7db4d60c01b6126ea565b600460009054906101000a900460ff16156111755761112f67583b5569fa1350c760c01b6126ea565b611143671e03d7d22a070d8260c01b6126ea565b6040517f598347c500000000000000000000000000000000000000000000000000000000815260040160405180910390fd5b61118967ab345ba96902be6560c01b6126ea565b61119d67ad8b2771a7f4461860c01b6126ea565b6001600460006101000a81548160ff0219169083151502179055506111cc6710e15d57d5e3140760c01b6126ea565b6111e067394c8332f1be988760c01b6126ea565b60003073ffffffffffffffffffffffffffffffffffffffff1631905061121067989ed965b2d5d77760c01b6126ea565b6112246741bbeb2745a1381660c01b6126ea565b600060048261123391906131f4565b905061124967bbf6ad314cf216dd60c01b6126ea565b61125d67791160998c50803060c01b6126ea565b611266816126ed565b61127a673e75c32bb9652e1e60c01b6126ea565b61128e672a145079ab2d241960c01b6126ea565b809250505090565b600880546112a390613262565b80601f01602080910402602001604051908101604052809291908181526020018280546112cf90613262565b801561131c5780601f106112f15761010080835404028352916020019161131c565b820191906000526020600020905b8154815290600101906020018083116112ff57829003601f168201915b505050505081565b600460019054906101000a900460ff1681565b6301e2850081565b60006113556702ade90f92a76e3b60c01b6126ea565b61136967cda4243f6dc8ea6060c01b6126ea565b61137d679126dc7883c1d09960c01b6126ea565b600154905090565b6301e1338081565b60006113a367b3970ba3c1e29bd960c01b6126ea565b6113b767054cce9f295bd06560c01b6126ea565b6113cb6736a6e92609d9ecdc60c01b6126ea565b600280836040516113dc91906132be565b602060405180830381855afa1580156113f9573d6000803e3d6000fd5b5050506040513d601f19601f8201168201806040525081019061141c91906132dc565b60405160200161142c91906132f8565b60405160208183030381529060405260405161144891906132be565b602060405180830381855afa158015611465573d6000803e3d6000fd5b5050506040513d601f19601f8201168201806040525081019061148891906132dc565b9050919050565b60006114a5679344fd1ca4f1013b60c01b6126ea565b6114b967b35a66395a1517f060c01b6126ea565b6114cd67aef19366019d222f60c01b6126ea565b601b8460ff161080156114f057506114ef676927b1b1003e2a8260c01b612899565b5b8061151a5750601e8460ff16118015611519575061151867480c06167076a3f860c01b612899565b5b5b156115655761153367803a03b429df495960c01b6126ea565b6040517fc360d95200000000000000000000000000000000000000000000000000000000815260040160405180910390fd5b611579678253c93be05155bd60c01b6126ea565b61158d671525be57b7c8b7b360c01b6126ea565b6115a167e347c4c0b356490e60c01b6126ea565b60006115ad8787610cc0565b90506115c367a028dda12acdac9460c01b6126ea565b6115d767b4cd9976f3aa968760c01b6126ea565b60006115e38a8a610d38565b90506115f9675ce9fe51e002bbbf60c01b6126ea565b61160d674645cabb2280f2f660c01b6126ea565b8173ffffffffffffffffffffffffffffffffffffffff16600182888888604051600081526020016040526040516116479493929190613309565b6020604051602081039080840390855afa158015611669573d6000803e3d6000fd5b5050506020604051035173ffffffffffffffffffffffffffffffffffffffff161492505050979650505050505050565b60006116af67236be2508a6a0cff60c01b6126ea565b6116c367461b04935a253c5760c01b6126ea565b6116d767024ee045183f005e60c01b6126ea565b600254905090565b60025481565b60006116fb67b990b848160f43db60c01b6126ea565b61170f674cf6b1446c126d2c60c01b6126ea565b6117236796cc8efc9212106a60c01b6126ea565b61172b61133f565b421015611778576117466703d9c7cfdd76df0460c01b6126ea565b6040517f153d51b900000000000000000000000000000000000000000000000000000000815260040160405180910390fd5b61178c671dce55775f2f418760c01b6126ea565b6117a0675a3a3af042968aa160c01b6126ea565b6117b4671625be625b99c0b260c01b6126ea565b600460009054906101000a900460ff1661180e576117dc67fb84bce59e3a14a060c01b6126ea565b6040517f1e5a53d300000000000000000000000000000000000000000000000000000000815260040160405180910390fd5b61182267cd85c9d24579080c60c01b6126ea565b6118366763d602d8fe2adf7a60c01b6126ea565b61184a67d915ad96ce841a3660c01b6126ea565b600460019054906101000a900460ff16156118a557611873674cdb675ff5dc04e260c01b6126ea565b6040517f598347c500000000000000000000000000000000000000000000000000000000815260040160405180910390fd5b6118b967b4ed0821ef6c02ef60c01b6126ea565b6118cd679ec4f082fc8296d060c01b6126ea565b6001600460016101000a81548160ff0219169083151502179055506118fc67b7161fe1b8c19c7b60c01b6126ea565b611910674922aae37367b61e60c01b6126ea565b60003073ffffffffffffffffffffffffffffffffffffffff1631905061194067f252de9d3251ae0f60c01b6126ea565b611954677e58edceee9e1ee360c01b6126ea565b600060038261196391906131f4565b905061197967e43932227c2bb02c60c01b6126ea565b61198d672afaaea8259cd63f60c01b6126ea565b611996816126ed565b6119aa673ce862ddf31fe85660c01b6126ea565b6119be672dee1d3c9e170fe560c01b6126ea565b809250505090565b60606119dc67ecc36640eacef30060c01b6126ea565b6119f06795f87297ac35762a60c01b6126ea565b611a046751f1f77f906e652860c01b6126ea565b6000611a0f84611acb565b9050611a256746fc764624c272d860c01b6126ea565b611a39673bdd6645fb52bfed60c01b6126ea565b60187f4469616d6f6e64205369676e6564204d6573736167653a0a000000000000000084516002806014611a6d9190613332565b60088054611a7a90613262565b9050611a86919061335a565b611a90919061335a565b611a9a919061335a565b60088487604051602001611ab396959493929190613390565b60405160208183030381529060405291505092915050565b6060611ae167f5dfe985534a56a360c01b6126ea565b611af567cb7aa4571e1715a360c01b6126ea565b611b0967084c872d47b169f160c01b6126ea565b600060026014611b199190613332565b60ff1667ffffffffffffffff811115611b3557611b34612c44565b5b6040519080825280601f01601f191660200182016040528015611b675781602001600182028036833780820191505090505b509050611b7e67243082381318dce560c01b6126ea565b611b92677f3b27bfe44aa59160c01b6126ea565b611bb5818460601b6bffffffffffffffffffffffff19166000601460ff166128a4565b611bc967a4244fa289a4687a60c01b6126ea565b611bdd67428c4c366c2b460660c01b6126ea565b600081805190602001209050611bfd671997efb9a826289e60c01b6126ea565b611c11672e43a2fc3fc8017460c01b6126ea565b6000611c2767f407964a2e07ab6860c01b6126ea565b611c3b679c47a1fdb97761d260c01b6126ea565b60005b601460ff16811015611d2c57611c5e67606472acd4fdaadc60c01b6126ea565b611c7267a61675eb9f5469b060c01b6126ea565b6000838260208110611c8757611c86613484565b5b1a60f81b60f81c9050611ca467cfca5678f933042b60c01b6126ea565b611cb86721b9d60e1769a0b760c01b6126ea565b611cd6858480611cc79061349a565b955060048460ff16901c612abb565b611cea676f201c13711c0b0160c01b6126ea565b611cfe67dc0cb5bc937abd7860c01b6126ea565b611d18858480611d0d9061349a565b9550600f8416612abb565b508080611d249061349a565b915050611c3e565b50611d4167b55456fcf6151cfc60c01b6126ea565b6002806014611d509190613332565b611d5a919061335a565b60ff1667ffffffffffffffff811115611d7657611d75612c44565b5b6040519080825280601f01601f191660200182016040528015611da85781602001600182028036833780820191505090505b509350611dbf67c32f0dff8f82c02460c01b6126ea565b7f300000000000000000000000000000000000000000000000000000000000000084600081518110611df457611df3613484565b5b60200101907effffffffffffffffffffffffffffffffffffffffffffffffffffffffffffff1916908160001a905350611e37679d006e8d554d6f4f60c01b6126ea565b7f780000000000000000000000000000000000000000000000000000000000000084600181518110611e6c57611e6b613484565b5b60200101907effffffffffffffffffffffffffffffffffffffffffffffffffffffffffffff1916908160001a905350611eaf67d4d6f75901f2618760c01b6126ea565b611ec367d4ab506eafd4a66560c01b6126ea565b60005b60026014611ed49190613332565b60ff16811015611f7157611ef2675aff96acd50353e760c01b6126ea565b838181518110611f0557611f04613484565b5b602001015160f81c60f81b85600283611f1e91906134b8565b81518110611f2f57611f2e613484565b5b60200101907effffffffffffffffffffffffffffffffffffffffffffffffffffffffffffff1916908160001a9053508080611f699061349a565b915050611ec6565b50611f8667ca78144763705c8260c01b6126ea565b611f9a6740eea7d6e857bfa060c01b6126ea565b505050919050565b6000611fb867db27e761f3c4634d60c01b6126ea565b611fcc67eeaf3c4a15e93cc860c01b6126ea565b611fe06781d5819a54a9dbad60c01b6126ea565b600054905090565b60055481565b60005481565b600061200a67b7dc5d659d4ce08960c01b6126ea565b61201e676bc916d32521199560c01b6126ea565b6120326747fefbb0151003bc60c01b6126ea565b60036002600060018560001c161461204b57600361204e565b60025b856040516020016120609291906134d6565b60405160208183030381529060405260405161207c91906132be565b602060405180830381855afa158015612099573d6000803e3d6000fd5b5050506040513d601f19601f820116820180604052508101906120bc91906132dc565b6040516020016120cc91906132f8565b6040516020818303038152906040526040516120e891906132be565b602060405180830381855afa158015612105573d6000803e3d6000fd5b5050506040515160601b905092915050565b61212b67b9dceaebde088c5760c01b6126ea565b61213f6798be35e9c793677760c01b6126ea565b61215367eff1a2344edb1cd160c01b6126ea565b3447146121a05761216e674660c1c3493a168460c01b6126ea565b6040517fe538555100000000000000000000000000000000000000000000000000000000815260040160405180910390fd5b6121b4678b065b8dc5752f1560c01b6126ea565b6121c867011c84eb5f2a5c9f60c01b6126ea565b6121dc67d272c9032219271360c01b6126ea565b6000340361222a576121f8671ddb7d3ebe835e7c60c01b6126ea565b6040517fd3a34e3b00000000000000000000000000000000000000000000000000000000815260040160405180910390fd5b61223e670140992624a7ee1960c01b6126ea565b61225267d5ed02e795f33ce160c01b6126ea565b61226667739de5e2e823e08760c01b6126ea565b80518251146122b5576122836766f63ddce4d1b42860c01b6126ea565b6040517ff4dbfb5a00000000000000000000000000000000000000000000000000000000815260040160405180910390fd5b6122c967a71dcea3a722249b60c01b6126ea565b6122dd67294941688f92295a60c01b6126ea565b6122f1671d54f8853f8b70d660c01b6126ea565b600061230767e7a168564736fb8960c01b6126ea565b61231b676bcbb5a8a416bf8460c01b6126ea565b60005b83518110156126305761233b676cba9898eeaa297560c01b6126ea565b61234f67282a1d059a6c5a9860c01b6126ea565b600060601b6bffffffffffffffffffffffff191684828151811061237657612375613484565b5b60200260200101516bffffffffffffffffffffffff1916036123d8576123a66713dabca1678defdc60c01b6126ea565b6040517f1c5fc20800000000000000000000000000000000000000000000000000000000815260040160405180910390fd5b6123ec671e266256d729f2c960c01b6126ea565b6124006721985ffadf9d7e4260c01b6126ea565b61241467ff9f2ea816a8087960c01b6126ea565b600083828151811061242957612428613484565b5b60200260200101510361247c5761244a67d863c193a784bfea60c01b6126ea565b6040517f34b4782100000000000000000000000000000000000000000000000000000000815260040160405180910390fd5b612490673c7f8d77adea7d2460c01b6126ea565b6124a467b7c7e172fd1ac28d60c01b6126ea565b6124b8670ab381424ca47e1260c01b6126ea565b6000600360008684815181106124d1576124d0613484565b5b60200260200101516bffffffffffffffffffffffff19166bffffffffffffffffffffffff1916815260200190815260200160002054146125515761251f670a97620ad4bc4a1760c01b6126ea565b6040517fb52e685100000000000000000000000000000000000000000000000000000000815260040160405180910390fd5b612565673a424a27c7d7685360c01b6126ea565b612579676b138fbafc33472060c01b6126ea565b82818151811061258c5761258b613484565b5b60200260200101518261259f91906134b8565b91506125b5672ba85b6f673b990560c01b6126ea565b8281815181106125c8576125c7613484565b5b6020026020010151600360008684815181106125e7576125e6613484565b5b60200260200101516bffffffffffffffffffffffff19166bffffffffffffffffffffffff1916815260200190815260200160002081905550806126299061349a565b905061231e565b50612645675750af3ba3a0e2c160c01b6126ea565b61265967d523c5afc0c004f060c01b6126ea565b8034146126a6576126746792f4d4809f30143460c01b6126ea565b6040517f970d408900000000000000000000000000000000000000000000000000000000815260040160405180910390fd5b6126ba67e327c2b2b16182a660c01b6126ea565b505050565b60036020528060005260406000206000915090505481565b600460029054906101000a900460ff1681565b50565b6127016756ed8bf5aaf547c260c01b6126ea565b612715674ab6f96d5141dc2860c01b6126ea565b61272967b9a8d196c270dcab60c01b6126ea565b600060028261273891906131f4565b905061274e670220c8e04da3f6e160c01b6126ea565b61276267a901718f94fd458960c01b6126ea565b6000818361277091906134f7565b905061278667566537d7df71bdb760c01b6126ea565b61279a672fff336406da611560c01b6126ea565b600660009054906101000a900473ffffffffffffffffffffffffffffffffffffffff1673ffffffffffffffffffffffffffffffffffffffff166108fc839081150290604051600060405180830381858888f19350505050158015612802573d6000803e3d6000fd5b50612817673f3a6cf474e571be60c01b6126ea565b61282b67e604662f374527c960c01b6126ea565b600760009054906101000a900473ffffffffffffffffffffffffffffffffffffffff1673ffffffffffffffffffffffffffffffffffffffff166108fc829081150290604051600060405180830381858888f19350505050158015612893573d6000803e3d6000fd5b50505050565b600060019050919050565b6128b867ad2aed6a16111cf560c01b6126ea565b6128cc673eb796f5a27f338a60c01b6126ea565b6128e067d1665d9526f19e6960c01b6126ea565b60008290506128f9674866b772e750caa660c01b6126ea565b61290d6716c93d315e4c19b460c01b6126ea565b60005b82811015612ab35761292c67d60a6bb802777f8660c01b6126ea565b61293f669b2cb661a4e36460c01b6126ea565b600085826020811061295457612953613484565b5b1a60f81b60f81c905061297167d5b1e92c6552db7460c01b6126ea565b7f303132333435363738396162636465660000000000000000000000000000000060048260ff16901c60ff16601081106129ae576129ad613484565b5b1a60f81b8784806129be9061349a565b9550815181106129d1576129d0613484565b5b60200101907effffffffffffffffffffffffffffffffffffffffffffffffffffffffffffff1916908160001a905350612a146719df0ed554e041e560c01b6126ea565b7f3031323334353637383961626364656600000000000000000000000000000000600f821660ff1660108110612a4d57612a4c613484565b5b1a60f81b878480612a5d9061349a565b955081518110612a7057612a6f613484565b5b60200101907effffffffffffffffffffffffffffffffffffffffffffffffffffffffffffff1916908160001a905350508080612aab9061349a565b915050612910565b505050505050565b612acf670a135274db437cea60c01b6126ea565b612ae367e30985313975aa0360c01b6126ea565b612af7673eae86fac74f2f9160c01b6126ea565b6000838381518110612b0c57612b0b613484565b5b602001015160f81c60f81b9050612b2d674c173b750631d66a60c01b6126ea565b612b4167c6a5810034d10a2f60c01b6126ea565b7f6100000000000000000000000000000000000000000000000000000000000000817effffffffffffffffffffffffffffffffffffffffffffffffffffffffffffff191610158015612b97575060088260ff1610155b15612c1257612bb067df9512511e153c3160c01b6126ea565b612bc467d3be6fe18c39b1f160c01b6126ea565b602060f81b8118848481518110612bde57612bdd613484565b5b60200101907effffffffffffffffffffffffffffffffffffffffffffffffffffffffffffff1916908160001a905350612c27565b612c26673c53594d72f03d7d60c01b6126ea565b5b50505050565b60018060a01b0381168114612c4157600080fd5b50565b634e487b7160e01b600052604160045260246000fd5b60006040519050601f19601f830116810181811067ffffffffffffffff82111715612c8857612c87612c44565b5b8060405250919050565b600082601f830112612ca357600080fd5b813567ffffffffffffffff811115612cbe57612cbd612c44565b5b612cd16020601f19601f84011601612c5a565b818152846020838601011115612ce657600080fd5b81602085016020830137600060208383010152809250505092915050565b60008135905060ff81168114612d1957600080fd5b919050565b600080600080600080600060e0888a031215612d3957600080fd5b8735612d4481612c2d565b80975050602088013567ffffffffffffffff811115612d6257600080fd5b612d6e8a828b01612c92565b9650506040880135945060608801359350612d8b60808901612d04565b925060a0880135915060c0880135905092959891949750929550565b600060208201905060018060a01b038316825292915050565b6000602082019050821515825292915050565b60006040820190508382528260208301529392505050565b60008060408385031215612dfe57600080fd5b82359150602083013590509250929050565b600060208201905060018060a01b038316825292915050565b600060208201905082825292915050565b60008060408385031215612e4d57600080fd5b8235612e5881612c2d565b80925050602083013567ffffffffffffffff811115612e7657600080fd5b612e8285828601612c92565b9150509250929050565b600060208201905082825292915050565b60005b83811015612ebb578082015181840152602081019050612ea0565b50600083830152505050565b6020815260008251806020840152612ee6816040850160208701612e9d565b6040601f19601f83011684010191505092915050565b600060208284031215612f0e57600080fd5b813567ffffffffffffffff811115612f2557600080fd5b612f3184828501612c92565b91505092915050565b600080600080600080600060e0888a031215612f5557600080fd5b8735612f6081612c2d565b80975050602088013567ffffffffffffffff811115612f7e57600080fd5b612f8a8a828b01612c92565b9650506040880135945060608801359350612fa760808901612d04565b925060a0880135915060c0880135905092959891949750929550565b600060208284031215612fd557600080fd5b8135612fe081612c2d565b8091505092915050565b60006020820190506bffffffffffffffffffffffff198316825292915050565b600067ffffffffffffffff82111561302557613024612c44565b5b60208260051b019050919050565b6000813590506bffffffffffffffffffffffff198116811461305457600080fd5b919050565b600082601f83011261306a57600080fd5b8135602061307f61307a8361300a565b612c5a565b808382528282019150828460051b87010193508684111561309f57600080fd5b8286015b848110156130be5780358352838301925083810190506130a3565b508094505050505092915050565b600080604083850312156130df57600080fd5b823567ffffffffffffffff808211156130f757600080fd5b818501915085601f83011261310b57600080fd5b8135602061312061311b8361300a565b612c5a565b808382528282019150828460051b87010193508984111561314057600080fd5b82860195505b838610156131685761315786613033565b825282820191508286019550613146565b809750505080870135935050508082111561318257600080fd5b5061318f85828601613059565b9150509250929050565b6000602082840312156131ab57600080fd5b6131b482613033565b905092915050565b634e487b7160e01b600052601160045260246000fd5b6000828202905081810483148215176131ee576131ed6131bc565b5b92915050565b60008261321157634e487b7160e01b600052601260045260246000fd5b828204905092915050565b600060808201905060018060a01b038616825284602083015283604083015282606083015295945050505050565b82815281602082015260006040820190509392505050565b60008160011c9050600182168061327a57607f821691505b60208210810361329a57634e487b7160e01b600052602260045260246000fd5b50919050565b600081516132b2818560208601612e9d565b80840191505092915050565b600082516132d0818460208701612e9d565b80830191505092915050565b6000602082840312156132ee57600080fd5b8151905092915050565b818152600060208201905092915050565b600060808201905085825260ff8516602083015283604083015282606083015295945050505050565b600060ff831660ff83160260ff81169150808214613353576133526131bc565b5b5092915050565b600060ff831660ff831601905060ff811115613379576133786131bc565b5b92915050565b806000525060006020600020905090565b600060ff60f81b808960f81b168352600167ffffffffffffffff19891681850152818860f81b166019850152601a9150600087548181841c9050838216806133d957607f821691505b602080831082036133f857634e487b7160e01b85526022600452602485fd5b816000811461340e57600181146134275761345c565b60ff198516888b01528784151585028b0101955061345c565b6134308d61337f565b60005b858110156134525781548a828e01015288820191508381019050613433565b505087848b010195505b505050505061347461346e82896132a0565b876132a0565b9350505050979650505050505050565b634e487b7160e01b600052603260045260246000fd5b6000801982036134ad576134ac6131bc565b5b600182019050919050565b60008282019050808211156134d0576134cf6131bc565b5b92915050565b60ff60f81b8360f81b16815281600182015260006021820190509392505050565b600082820390508181111561350f5761350e6131bc565b5b9291505056fea2646970667358221220ee5f8420db7dc535c382c61979f28ab41706c21ba0548cda5712d66ee4ba99ee64736f6c63430008140033","opcodes":"PUSH1 0x80 PUSH1 0x40 MSTORE CALLVALUE DUP1 ISZERO PUSH3 0x11 JUMPI PUSH1 0x0 DUP1 REVERT JUMPDEST POP PUSH1 0x40 MLOAD PUSH3 0x3DC6 CODESIZE SUB DUP1 PUSH3 0x3DC6 DUP4 CODECOPY DUP2 DUP2 ADD PUSH1 0x40 MSTORE DUP2 ADD SWAP1 PUSH3 0x37 SWAP2 SWAP1 PUSH3 0x5B8 JUMP JUMPDEST PUSH3 0x53 PUSH8 0x75B9B59A28228B1F PUSH1 0xC0 SHL PUSH3 0x57F PUSH1 0x20 SHL PUSH1 0x20 SHR JUMP JUMPDEST PUSH3 0x6F PUSH8 0xE156BA03A17724D8 PUSH1 0xC0 SHL PUSH3 0x57F PUSH1 0x20 SHL PUSH1 0x20 SHR JUMP JUMPDEST PUSH3 0x8B PUSH8 0xE9E9E0B9BAC98416 PUSH1 0xC0 SHL PUSH3 0x57F PUSH1 0x20 SHL PUSH1 0x20 SHR JUMP JUMPDEST PUSH1 0x0 PUSH20 0xFFFFFFFFFFFFFFFFFFFFFFFFFFFFFFFFFFFFFFFF AND DUP7 PUSH20 0xFFFFFFFFFFFFFFFFFFFFFFFFFFFFFFFFFFFFFFFF AND SUB PUSH3 0x10E JUMPI PUSH3 0xDC PUSH8 0x8DB2E843B26D874C PUSH1 0xC0 SHL PUSH3 0x57F PUSH1 0x20 SHL PUSH1 0x20 SHR JUMP JUMPDEST PUSH1 0x40 MLOAD PUSH32 0x125F3CCD00000000000000000000000000000000000000000000000000000000 DUP2 MSTORE PUSH1 0x4 ADD PUSH1 0x40 MLOAD DUP1 SWAP2 SUB SWAP1 REVERT JUMPDEST PUSH3 0x12A PUSH8 0x20AFEBD31C129FDF PUSH1 0xC0 SHL PUSH3 0x57F PUSH1 0x20 SHL PUSH1 0x20 SHR JUMP JUMPDEST PUSH3 0x146 PUSH8 0xF51CD83BD5A0D84B PUSH1 0xC0 SHL PUSH3 0x57F PUSH1 0x20 SHL PUSH1 0x20 SHR JUMP JUMPDEST PUSH3 0x162 PUSH8 0x47EE991990913296 PUSH1 0xC0 SHL PUSH3 0x57F PUSH1 0x20 SHL PUSH1 0x20 SHR JUMP JUMPDEST PUSH1 0x0 PUSH20 0xFFFFFFFFFFFFFFFFFFFFFFFFFFFFFFFFFFFFFFFF AND DUP6 PUSH20 0xFFFFFFFFFFFFFFFFFFFFFFFFFFFFFFFFFFFFFFFF AND SUB PUSH3 0x1E5 JUMPI PUSH3 0x1B3 PUSH8 0x9F7BE0BEE544430 PUSH1 0xC0 SHL PUSH3 0x57F PUSH1 0x20 SHL PUSH1 0x20 SHR JUMP JUMPDEST PUSH1 0x40 MLOAD PUSH32 0x9E719F5100000000000000000000000000000000000000000000000000000000 DUP2 MSTORE PUSH1 0x4 ADD PUSH1 0x40 MLOAD DUP1 SWAP2 SUB SWAP1 REVERT JUMPDEST PUSH3 0x201 PUSH8 0x4AE9A29FF7BC3E0F PUSH1 0xC0 SHL PUSH3 0x57F PUSH1 0x20 SHL PUSH1 0x20 SHR JUMP JUMPDEST PUSH3 0x21D PUSH8 0x1E0CE1F814D87961 PUSH1 0xC0 SHL PUSH3 0x57F PUSH1 0x20 SHL PUSH1 0x20 SHR JUMP JUMPDEST PUSH3 0x239 PUSH8 0x3D6BA77DB0267848 PUSH1 0xC0 SHL PUSH3 0x57F PUSH1 0x20 SHL PUSH1 0x20 SHR JUMP JUMPDEST TIMESTAMP DUP4 GT PUSH3 0x28F JUMPI PUSH3 0x25D PUSH8 0x8CB9702596DF49AC PUSH1 0xC0 SHL PUSH3 0x57F PUSH1 0x20 SHL PUSH1 0x20 SHR JUMP JUMPDEST PUSH1 0x40 MLOAD PUSH32 0x1B96329300000000000000000000000000000000000000000000000000000000 DUP2 MSTORE PUSH1 0x4 ADD PUSH1 0x40 MLOAD DUP1 SWAP2 SUB SWAP1 REVERT JUMPDEST PUSH3 0x2AB PUSH8 0xD25F4D96964DD3F9 PUSH1 0xC0 SHL PUSH3 0x57F PUSH1 0x20 SHL PUSH1 0x20 SHR JUMP JUMPDEST PUSH3 0x2C7 PUSH8 0x526289C8740E8001 PUSH1 0xC0 SHL PUSH3 0x57F PUSH1 0x20 SHL PUSH1 0x20 SHR JUMP JUMPDEST PUSH3 0x2E3 PUSH8 0x1C5FC7228201498E PUSH1 0xC0 SHL PUSH3 0x57F PUSH1 0x20 SHL PUSH1 0x20 SHR JUMP JUMPDEST DUP3 DUP3 GT PUSH3 0x339 JUMPI PUSH3 0x307 PUSH8 0xB065E2A0A843BEFB PUSH1 0xC0 SHL PUSH3 0x57F PUSH1 0x20 SHL PUSH1 0x20 SHR JUMP JUMPDEST PUSH1 0x40 MLOAD PUSH32 0x7538BB6800000000000000000000000000000000000000000000000000000000 DUP2 MSTORE PUSH1 0x4 ADD PUSH1 0x40 MLOAD DUP1 SWAP2 SUB SWAP1 REVERT JUMPDEST PUSH3 0x355 PUSH8 0xE7D383886060C003 PUSH1 0xC0 SHL PUSH3 0x57F PUSH1 0x20 SHL PUSH1 0x20 SHR JUMP JUMPDEST PUSH3 0x371 PUSH8 0xD42DCF2DE5BB0939 PUSH1 0xC0 SHL PUSH3 0x57F PUSH1 0x20 SHL PUSH1 0x20 SHR JUMP JUMPDEST PUSH3 0x38D PUSH8 0x7C11397D4E7CFD64 PUSH1 0xC0 SHL PUSH3 0x57F PUSH1 0x20 SHL PUSH1 0x20 SHR JUMP JUMPDEST DUP2 DUP2 GT PUSH3 0x3E3 JUMPI PUSH3 0x3B1 PUSH8 0x5DCDC4070C65AA9D PUSH1 0xC0 SHL PUSH3 0x57F PUSH1 0x20 SHL PUSH1 0x20 SHR JUMP JUMPDEST PUSH1 0x40 MLOAD PUSH32 0xAEC39BFD00000000000000000000000000000000000000000000000000000000 DUP2 MSTORE PUSH1 0x4 ADD PUSH1 0x40 MLOAD DUP1 SWAP2 SUB SWAP1 REVERT JUMPDEST PUSH3 0x3FF PUSH8 0x7AB4237F63DDCCD6 PUSH1 0xC0 SHL PUSH3 0x57F PUSH1 0x20 SHL PUSH1 0x20 SHR JUMP JUMPDEST PUSH3 0x41B PUSH8 0x1ABA7534B1B6967D PUSH1 0xC0 SHL PUSH3 0x57F PUSH1 0x20 SHL PUSH1 0x20 SHR JUMP JUMPDEST DUP6 PUSH1 0x6 PUSH1 0x0 PUSH2 0x100 EXP DUP2 SLOAD DUP2 PUSH20 0xFFFFFFFFFFFFFFFFFFFFFFFFFFFFFFFFFFFFFFFF MUL NOT AND SWAP1 DUP4 PUSH20 0xFFFFFFFFFFFFFFFFFFFFFFFFFFFFFFFFFFFFFFFF AND MUL OR SWAP1 SSTORE POP PUSH3 0x478 PUSH8 0x3AB54D9BD9EC8DF1 PUSH1 0xC0 SHL PUSH3 0x57F PUSH1 0x20 SHL PUSH1 0x20 SHR JUMP JUMPDEST DUP5 PUSH1 0x7 PUSH1 0x0 PUSH2 0x100 EXP DUP2 SLOAD DUP2 PUSH20 0xFFFFFFFFFFFFFFFFFFFFFFFFFFFFFFFFFFFFFFFF MUL NOT AND SWAP1 DUP4 PUSH20 0xFFFFFFFFFFFFFFFFFFFFFFFFFFFFFFFFFFFFFFFF AND MUL OR SWAP1 SSTORE POP PUSH3 0x4D5 PUSH8 0xCAD8245E0C3078FC PUSH1 0xC0 SHL PUSH3 0x57F PUSH1 0x20 SHL PUSH1 0x20 SHR JUMP JUMPDEST DUP4 PUSH1 0x8 SWAP1 DUP2 PUSH3 0x4E6 SWAP2 SWAP1 PUSH3 0x792 JUMP JUMPDEST POP PUSH3 0x503 PUSH8 0xB79842303304FA35 PUSH1 0xC0 SHL PUSH3 0x57F PUSH1 0x20 SHL PUSH1 0x20 SHR JUMP JUMPDEST TIMESTAMP PUSH1 0x5 DUP2 SWAP1 SSTORE POP PUSH3 0x526 PUSH8 0x50CA425BDA13A866 PUSH1 0xC0 SHL PUSH3 0x57F PUSH1 0x20 SHL PUSH1 0x20 SHR JUMP JUMPDEST DUP3 PUSH1 0x0 DUP2 SWAP1 SSTORE POP PUSH3 0x549 PUSH8 0xFBAEE0F27A039089 PUSH1 0xC0 SHL PUSH3 0x57F PUSH1 0x20 SHL PUSH1 0x20 SHR JUMP JUMPDEST DUP2 PUSH1 0x1 DUP2 SWAP1 SSTORE POP PUSH3 0x56C PUSH8 0x56DD1A2F9849F580 PUSH1 0xC0 SHL PUSH3 0x57F PUSH1 0x20 SHL PUSH1 0x20 SHR JUMP JUMPDEST DUP1 PUSH1 0x2 DUP2 SWAP1 SSTORE POP POP POP POP POP POP POP PUSH3 0x86B JUMP JUMPDEST POP JUMP JUMPDEST PUSH1 0x0 DUP2 MLOAD SWAP1 POP PUSH1 0x1 DUP1 PUSH1 0xA0 SHL SUB DUP2 AND DUP2 EQ PUSH3 0x59D JUMPI PUSH1 0x0 DUP1 REVERT JUMPDEST SWAP2 SWAP1 POP JUMP JUMPDEST PUSH4 0x4E487B71 PUSH1 0xE0 SHL PUSH1 0x0 MSTORE PUSH1 0x41 PUSH1 0x4 MSTORE PUSH1 0x24 PUSH1 0x0 REVERT JUMPDEST PUSH1 0x0 DUP1 PUSH1 0x0 DUP1 PUSH1 0x0 DUP1 PUSH1 0xC0 DUP8 DUP10 SUB SLT ISZERO PUSH3 0x5D2 JUMPI PUSH1 0x0 DUP1 REVERT JUMPDEST PUSH3 0x5DD DUP8 PUSH3 0x582 JUMP JUMPDEST SWAP6 POP PUSH1 0x20 PUSH3 0x5EE DUP2 DUP10 ADD PUSH3 0x582 JUMP JUMPDEST SWAP6 POP PUSH1 0x40 DUP9 ADD MLOAD PUSH1 0x1 DUP1 PUSH1 0x40 SHL SUB DUP1 DUP3 GT ISZERO PUSH3 0x60A JUMPI PUSH1 0x0 DUP1 REVERT JUMPDEST DUP2 DUP11 ADD SWAP2 POP DUP11 PUSH1 0x1F DUP4 ADD SLT PUSH3 0x61F JUMPI PUSH1 0x0 DUP1 REVERT JUMPDEST DUP2 MLOAD DUP2 DUP2 GT ISZERO PUSH3 0x635 JUMPI PUSH3 0x634 PUSH3 0x5A2 JUMP JUMPDEST JUMPDEST PUSH1 0x1F NOT PUSH1 0x40 MLOAD DUP2 PUSH1 0x3F DUP4 PUSH1 0x1F DUP7 ADD AND ADD AND DUP2 ADD SWAP2 POP DUP1 DUP3 LT DUP5 DUP4 GT OR ISZERO PUSH3 0x662 JUMPI PUSH3 0x661 PUSH3 0x5A2 JUMP JUMPDEST JUMPDEST DUP2 PUSH1 0x40 MSTORE DUP3 DUP2 MSTORE DUP14 DUP7 DUP5 DUP8 ADD ADD GT ISZERO PUSH3 0x67B JUMPI PUSH1 0x0 DUP1 REVERT JUMPDEST PUSH1 0x0 SWAP4 POP JUMPDEST DUP3 DUP5 LT ISZERO PUSH3 0x6A0 JUMPI DUP6 DUP5 DUP7 ADD ADD MLOAD DUP7 DUP6 DUP4 ADD ADD MSTORE DUP6 DUP5 ADD SWAP4 POP PUSH3 0x680 JUMP JUMPDEST PUSH1 0x0 DUP7 DUP5 DUP4 ADD ADD MSTORE DUP1 SWAP10 POP POP POP POP POP POP POP PUSH1 0x60 DUP8 ADD MLOAD SWAP3 POP PUSH1 0x80 DUP8 ADD MLOAD SWAP2 POP PUSH1 0xA0 DUP8 ADD MLOAD SWAP1 POP SWAP3 SWAP6 POP SWAP3 SWAP6 POP SWAP3 SWAP6 JUMP JUMPDEST PUSH1 0x0 DUP2 PUSH1 0x1 SHR SWAP1 POP PUSH1 0x1 DUP3 AND DUP1 PUSH3 0x6E9 JUMPI PUSH1 0x7F DUP3 AND SWAP2 POP JUMPDEST PUSH1 0x20 DUP3 LT DUP2 SUB PUSH3 0x70A JUMPI PUSH4 0x4E487B71 PUSH1 0xE0 SHL PUSH1 0x0 MSTORE PUSH1 0x22 PUSH1 0x4 MSTORE PUSH1 0x24 PUSH1 0x0 REVERT JUMPDEST POP SWAP2 SWAP1 POP JUMP JUMPDEST DUP1 PUSH1 0x0 MSTORE POP PUSH1 0x0 PUSH1 0x20 PUSH1 0x0 KECCAK256 SWAP1 POP SWAP1 JUMP JUMPDEST PUSH1 0x1F DUP3 GT ISZERO PUSH3 0x773 JUMPI PUSH1 0x0 DUP2 DUP2 MSTORE PUSH1 0x20 DUP2 KECCAK256 PUSH1 0x1F DUP6 ADD PUSH1 0x5 SHR DUP2 ADD PUSH1 0x20 DUP7 LT ISZERO PUSH3 0x74B JUMPI DUP2 SWAP1 POP JUMPDEST PUSH1 0x1F DUP6 ADD PUSH1 0x5 SHR DUP3 ADD SWAP2 POP JUMPDEST DUP2 DUP2 LT ISZERO PUSH3 0x76F JUMPI DUP3 DUP2 SSTORE PUSH1 0x1 DUP2 ADD SWAP1 POP PUSH3 0x757 JUMP JUMPDEST POP POP POP JUMPDEST POP POP POP JUMP JUMPDEST PUSH1 0x0 DUP3 PUSH1 0x1 SHL PUSH1 0x0 NOT DUP5 PUSH1 0x3 SHL SHR NOT DUP4 AND OR SWAP1 POP SWAP3 SWAP2 POP POP JUMP JUMPDEST DUP2 MLOAD PUSH1 0x1 DUP1 PUSH1 0x40 SHL SUB DUP2 GT ISZERO PUSH3 0x7AE JUMPI PUSH3 0x7AD PUSH3 0x5A2 JUMP JUMPDEST JUMPDEST PUSH3 0x7C6 DUP2 PUSH3 0x7BF DUP5 SLOAD PUSH3 0x6D0 JUMP JUMPDEST DUP5 PUSH3 0x721 JUMP JUMPDEST PUSH1 0x0 PUSH1 0x20 DUP1 SWAP2 POP PUSH1 0x1F DUP4 GT PUSH1 0x1 DUP2 EQ PUSH3 0x7FF JUMPI PUSH1 0x0 DUP5 ISZERO PUSH3 0x7EA JUMPI DUP4 DUP8 ADD MLOAD SWAP1 POP JUMPDEST PUSH3 0x7F6 DUP6 DUP3 PUSH3 0x778 JUMP JUMPDEST DUP7 SSTORE POP PUSH3 0x863 JUMP JUMPDEST PUSH1 0x1F NOT DUP5 AND PUSH3 0x80F DUP7 PUSH3 0x710 JUMP JUMPDEST PUSH1 0x0 JUMPDEST DUP3 DUP2 LT ISZERO PUSH3 0x837 JUMPI DUP6 DUP10 ADD MLOAD DUP3 SSTORE PUSH1 0x1 DUP3 ADD SWAP2 POP DUP5 DUP7 ADD SWAP6 POP DUP5 DUP2 ADD SWAP1 POP PUSH3 0x812 JUMP JUMPDEST POP DUP6 DUP3 LT ISZERO PUSH3 0x857 JUMPI DUP5 DUP9 ADD MLOAD PUSH1 0x0 NOT PUSH1 0xF8 DUP9 PUSH1 0x3 SHL AND SHR NOT DUP2 AND DUP3 SSTORE POP JUMPDEST POP POP PUSH1 0x1 DUP5 PUSH1 0x1 SHL ADD DUP6 SSTORE JUMPDEST POP POP POP POP POP POP JUMP JUMPDEST PUSH2 0x354B DUP1 PUSH3 0x87B PUSH1 0x0 CODECOPY PUSH1 0x0 RETURN INVALID PUSH1 0x80 PUSH1 0x40 MSTORE PUSH1 0x4 CALLDATASIZE LT PUSH2 0x1C2 JUMPI PUSH1 0x0 CALLDATALOAD PUSH1 0xE0 SHR DUP1 PUSH4 0x7847EA53 GT PUSH2 0xF7 JUMPI DUP1 PUSH4 0xA12A1B9F GT PUSH2 0x95 JUMPI DUP1 PUSH4 0xE77B9D9B GT PUSH2 0x64 JUMPI DUP1 PUSH4 0xE77B9D9B EQ PUSH2 0x665 JUMPI DUP1 PUSH4 0xF07E60A8 EQ PUSH2 0x6A2 JUMPI DUP1 PUSH4 0xF2113DC9 EQ PUSH2 0x6BE JUMPI DUP1 PUSH4 0xFA4EE75A EQ PUSH2 0x6FB JUMPI PUSH2 0x1C2 JUMP JUMPDEST DUP1 PUSH4 0xA12A1B9F EQ PUSH2 0x5A7 JUMPI DUP1 PUSH4 0xB28297F8 EQ PUSH2 0x5E4 JUMPI DUP1 PUSH4 0xBFC12C05 EQ PUSH2 0x60F JUMPI DUP1 PUSH4 0xE20FB74F EQ PUSH2 0x63A JUMPI PUSH2 0x1C2 JUMP JUMPDEST DUP1 PUSH4 0x84F0145E GT PUSH2 0xD1 JUMPI DUP1 PUSH4 0x84F0145E EQ PUSH2 0x4E9 JUMPI DUP1 PUSH4 0x8C86A100 EQ PUSH2 0x514 JUMPI DUP1 PUSH4 0x9365FE0B EQ PUSH2 0x53F JUMPI DUP1 PUSH4 0x951E3C3B EQ PUSH2 0x56A JUMPI PUSH2 0x1C2 JUMP JUMPDEST DUP1 PUSH4 0x7847EA53 EQ PUSH2 0x444 JUMPI DUP1 PUSH4 0x7B99C36D EQ PUSH2 0x46F JUMPI DUP1 PUSH4 0x8019F8D2 EQ PUSH2 0x4AC JUMPI PUSH2 0x1C2 JUMP JUMPDEST DUP1 PUSH4 0x34945F46 GT PUSH2 0x164 JUMPI DUP1 PUSH4 0x5E3EABAA GT PUSH2 0x13E JUMPI DUP1 PUSH4 0x5E3EABAA EQ PUSH2 0x398 JUMPI DUP1 PUSH4 0x64E7C23A EQ PUSH2 0x3C3 JUMPI DUP1 PUSH4 0x67BB0F95 EQ PUSH2 0x3EE JUMPI DUP1 PUSH4 0x6A01ACAD EQ PUSH2 0x419 JUMPI PUSH2 0x1C2 JUMP JUMPDEST DUP1 PUSH4 0x34945F46 EQ PUSH2 0x305 JUMPI DUP1 PUSH4 0x4E2AC9BF EQ PUSH2 0x342 JUMPI DUP1 PUSH4 0x5B33BEF3 EQ PUSH2 0x36D JUMPI PUSH2 0x1C2 JUMP JUMPDEST DUP1 PUSH4 0x1B17D9A8 GT PUSH2 0x1A0 JUMPI DUP1 PUSH4 0x1B17D9A8 EQ PUSH2 0x246 JUMPI DUP1 PUSH4 0x2E5B7458 EQ PUSH2 0x271 JUMPI DUP1 PUSH4 0x30C1A785 EQ PUSH2 0x29D JUMPI DUP1 PUSH4 0x31B4CD47 EQ PUSH2 0x2DA JUMPI PUSH2 0x1C2 JUMP JUMPDEST DUP1 PUSH4 0x69DF228 EQ PUSH2 0x1C7 JUMPI DUP1 PUSH4 0xBE89CC4 EQ PUSH2 0x1F0 JUMPI DUP1 PUSH4 0x18B46F58 EQ PUSH2 0x21B JUMPI JUMPDEST PUSH1 0x0 DUP1 REVERT JUMPDEST CALLVALUE DUP1 ISZERO PUSH2 0x1D3 JUMPI PUSH1 0x0 DUP1 REVERT JUMPDEST POP PUSH2 0x1EE PUSH1 0x4 DUP1 CALLDATASIZE SUB DUP2 ADD SWAP1 PUSH2 0x1E9 SWAP2 SWAP1 PUSH2 0x2D1E JUMP JUMPDEST PUSH2 0x726 JUMP JUMPDEST STOP JUMPDEST CALLVALUE DUP1 ISZERO PUSH2 0x1FC JUMPI PUSH1 0x0 DUP1 REVERT JUMPDEST POP PUSH2 0x205 PUSH2 0xAA4 JUMP JUMPDEST PUSH1 0x40 MLOAD PUSH2 0x212 SWAP2 SWAP1 PUSH2 0x2DA7 JUMP JUMPDEST PUSH1 0x40 MLOAD DUP1 SWAP2 SUB SWAP1 RETURN JUMPDEST CALLVALUE DUP1 ISZERO PUSH2 0x227 JUMPI PUSH1 0x0 DUP1 REVERT JUMPDEST POP PUSH2 0x230 PUSH2 0xACA JUMP JUMPDEST PUSH1 0x40 MLOAD PUSH2 0x23D SWAP2 SWAP1 PUSH2 0x2DA7 JUMP JUMPDEST PUSH1 0x40 MLOAD DUP1 SWAP2 SUB SWAP1 RETURN JUMPDEST CALLVALUE DUP1 ISZERO PUSH2 0x252 JUMPI PUSH1 0x0 DUP1 REVERT JUMPDEST POP PUSH2 0x25B PUSH2 0xAF0 JUMP JUMPDEST PUSH1 0x40 MLOAD PUSH2 0x268 SWAP2 SWAP1 PUSH2 0x2DC0 JUMP JUMPDEST PUSH1 0x40 MLOAD DUP1 SWAP2 SUB SWAP1 RETURN JUMPDEST CALLVALUE DUP1 ISZERO PUSH2 0x27D JUMPI PUSH1 0x0 DUP1 REVERT JUMPDEST POP PUSH2 0x286 PUSH2 0xB03 JUMP JUMPDEST PUSH1 0x40 MLOAD PUSH2 0x294 SWAP3 SWAP2 SWAP1 PUSH2 0x2DD3 JUMP JUMPDEST PUSH1 0x40 MLOAD DUP1 SWAP2 SUB SWAP1 RETURN JUMPDEST CALLVALUE DUP1 ISZERO PUSH2 0x2A9 JUMPI PUSH1 0x0 DUP1 REVERT JUMPDEST POP PUSH2 0x2C4 PUSH1 0x4 DUP1 CALLDATASIZE SUB DUP2 ADD SWAP1 PUSH2 0x2BF SWAP2 SWAP1 PUSH2 0x2DEB JUMP JUMPDEST PUSH2 0xCC0 JUMP JUMPDEST PUSH1 0x40 MLOAD PUSH2 0x2D1 SWAP2 SWAP1 PUSH2 0x2E10 JUMP JUMPDEST PUSH1 0x40 MLOAD DUP1 SWAP2 SUB SWAP1 RETURN JUMPDEST CALLVALUE DUP1 ISZERO PUSH2 0x2E6 JUMPI PUSH1 0x0 DUP1 REVERT JUMPDEST POP PUSH2 0x2EF PUSH2 0xD32 JUMP JUMPDEST PUSH1 0x40 MLOAD PUSH2 0x2FC SWAP2 SWAP1 PUSH2 0x2E29 JUMP JUMPDEST PUSH1 0x40 MLOAD DUP1 SWAP2 SUB SWAP1 RETURN JUMPDEST CALLVALUE DUP1 ISZERO PUSH2 0x311 JUMPI PUSH1 0x0 DUP1 REVERT JUMPDEST POP PUSH2 0x32C PUSH1 0x4 DUP1 CALLDATASIZE SUB DUP2 ADD SWAP1 PUSH2 0x327 SWAP2 SWAP1 PUSH2 0x2E3A JUMP JUMPDEST PUSH2 0xD38 JUMP JUMPDEST PUSH1 0x40 MLOAD PUSH2 0x339 SWAP2 SWAP1 PUSH2 0x2E8C JUMP JUMPDEST PUSH1 0x40 MLOAD DUP1 SWAP2 SUB SWAP1 RETURN JUMPDEST CALLVALUE DUP1 ISZERO PUSH2 0x34E JUMPI PUSH1 0x0 DUP1 REVERT JUMPDEST POP PUSH2 0x357 PUSH2 0xD90 JUMP JUMPDEST PUSH1 0x40 MLOAD PUSH2 0x364 SWAP2 SWAP1 PUSH2 0x2E29 JUMP JUMPDEST PUSH1 0x40 MLOAD DUP1 SWAP2 SUB SWAP1 RETURN JUMPDEST CALLVALUE DUP1 ISZERO PUSH2 0x379 JUMPI PUSH1 0x0 DUP1 REVERT JUMPDEST POP PUSH2 0x382 PUSH2 0x1037 JUMP JUMPDEST PUSH1 0x40 MLOAD PUSH2 0x38F SWAP2 SWAP1 PUSH2 0x2E29 JUMP JUMPDEST PUSH1 0x40 MLOAD DUP1 SWAP2 SUB SWAP1 RETURN JUMPDEST CALLVALUE DUP1 ISZERO PUSH2 0x3A4 JUMPI PUSH1 0x0 DUP1 REVERT JUMPDEST POP PUSH2 0x3AD PUSH2 0x1296 JUMP JUMPDEST PUSH1 0x40 MLOAD PUSH2 0x3BA SWAP2 SWAP1 PUSH2 0x2EC7 JUMP JUMPDEST PUSH1 0x40 MLOAD DUP1 SWAP2 SUB SWAP1 RETURN JUMPDEST CALLVALUE DUP1 ISZERO PUSH2 0x3CF JUMPI PUSH1 0x0 DUP1 REVERT JUMPDEST POP PUSH2 0x3D8 PUSH2 0x1324 JUMP JUMPDEST PUSH1 0x40 MLOAD PUSH2 0x3E5 SWAP2 SWAP1 PUSH2 0x2DC0 JUMP JUMPDEST PUSH1 0x40 MLOAD DUP1 SWAP2 SUB SWAP1 RETURN JUMPDEST CALLVALUE DUP1 ISZERO PUSH2 0x3FA JUMPI PUSH1 0x0 DUP1 REVERT JUMPDEST POP PUSH2 0x403 PUSH2 0x1337 JUMP JUMPDEST PUSH1 0x40 MLOAD PUSH2 0x410 SWAP2 SWAP1 PUSH2 0x2E29 JUMP JUMPDEST PUSH1 0x40 MLOAD DUP1 SWAP2 SUB SWAP1 RETURN JUMPDEST CALLVALUE DUP1 ISZERO PUSH2 0x425 JUMPI PUSH1 0x0 DUP1 REVERT JUMPDEST POP PUSH2 0x42E PUSH2 0x133F JUMP JUMPDEST PUSH1 0x40 MLOAD PUSH2 0x43B SWAP2 SWAP1 PUSH2 0x2E29 JUMP JUMPDEST PUSH1 0x40 MLOAD DUP1 SWAP2 SUB SWAP1 RETURN JUMPDEST CALLVALUE DUP1 ISZERO PUSH2 0x450 JUMPI PUSH1 0x0 DUP1 REVERT JUMPDEST POP PUSH2 0x459 PUSH2 0x1385 JUMP JUMPDEST PUSH1 0x40 MLOAD PUSH2 0x466 SWAP2 SWAP1 PUSH2 0x2E29 JUMP JUMPDEST PUSH1 0x40 MLOAD DUP1 SWAP2 SUB SWAP1 RETURN JUMPDEST CALLVALUE DUP1 ISZERO PUSH2 0x47B JUMPI PUSH1 0x0 DUP1 REVERT JUMPDEST POP PUSH2 0x496 PUSH1 0x4 DUP1 CALLDATASIZE SUB DUP2 ADD SWAP1 PUSH2 0x491 SWAP2 SWAP1 PUSH2 0x2EFC JUMP JUMPDEST PUSH2 0x138D JUMP JUMPDEST PUSH1 0x40 MLOAD PUSH2 0x4A3 SWAP2 SWAP1 PUSH2 0x2E8C JUMP JUMPDEST PUSH1 0x40 MLOAD DUP1 SWAP2 SUB SWAP1 RETURN JUMPDEST CALLVALUE DUP1 ISZERO PUSH2 0x4B8 JUMPI PUSH1 0x0 DUP1 REVERT JUMPDEST POP PUSH2 0x4D3 PUSH1 0x4 DUP1 CALLDATASIZE SUB DUP2 ADD SWAP1 PUSH2 0x4CE SWAP2 SWAP1 PUSH2 0x2F3A JUMP JUMPDEST PUSH2 0x148F JUMP JUMPDEST PUSH1 0x40 MLOAD PUSH2 0x4E0 SWAP2 SWAP1 PUSH2 0x2DC0 JUMP JUMPDEST PUSH1 0x40 MLOAD DUP1 SWAP2 SUB SWAP1 RETURN JUMPDEST CALLVALUE DUP1 ISZERO PUSH2 0x4F5 JUMPI PUSH1 0x0 DUP1 REVERT JUMPDEST POP PUSH2 0x4FE PUSH2 0x1699 JUMP JUMPDEST PUSH1 0x40 MLOAD PUSH2 0x50B SWAP2 SWAP1 PUSH2 0x2E29 JUMP JUMPDEST PUSH1 0x40 MLOAD DUP1 SWAP2 SUB SWAP1 RETURN JUMPDEST CALLVALUE DUP1 ISZERO PUSH2 0x520 JUMPI PUSH1 0x0 DUP1 REVERT JUMPDEST POP PUSH2 0x529 PUSH2 0x16DF JUMP JUMPDEST PUSH1 0x40 MLOAD PUSH2 0x536 SWAP2 SWAP1 PUSH2 0x2E29 JUMP JUMPDEST PUSH1 0x40 MLOAD DUP1 SWAP2 SUB SWAP1 RETURN JUMPDEST CALLVALUE DUP1 ISZERO PUSH2 0x54B JUMPI PUSH1 0x0 DUP1 REVERT JUMPDEST POP PUSH2 0x554 PUSH2 0x16E5 JUMP JUMPDEST PUSH1 0x40 MLOAD PUSH2 0x561 SWAP2 SWAP1 PUSH2 0x2E29 JUMP JUMPDEST PUSH1 0x40 MLOAD DUP1 SWAP2 SUB SWAP1 RETURN JUMPDEST CALLVALUE DUP1 ISZERO PUSH2 0x576 JUMPI PUSH1 0x0 DUP1 REVERT JUMPDEST POP PUSH2 0x591 PUSH1 0x4 DUP1 CALLDATASIZE SUB DUP2 ADD SWAP1 PUSH2 0x58C SWAP2 SWAP1 PUSH2 0x2E3A JUMP JUMPDEST PUSH2 0x19C6 JUMP JUMPDEST PUSH1 0x40 MLOAD PUSH2 0x59E SWAP2 SWAP1 PUSH2 0x2EC7 JUMP JUMPDEST PUSH1 0x40 MLOAD DUP1 SWAP2 SUB SWAP1 RETURN JUMPDEST CALLVALUE DUP1 ISZERO PUSH2 0x5B3 JUMPI PUSH1 0x0 DUP1 REVERT JUMPDEST POP PUSH2 0x5CE PUSH1 0x4 DUP1 CALLDATASIZE SUB DUP2 ADD SWAP1 PUSH2 0x5C9 SWAP2 SWAP1 PUSH2 0x2FC3 JUMP JUMPDEST PUSH2 0x1ACB JUMP JUMPDEST PUSH1 0x40 MLOAD PUSH2 0x5DB SWAP2 SWAP1 PUSH2 0x2EC7 JUMP JUMPDEST PUSH1 0x40 MLOAD DUP1 SWAP2 SUB SWAP1 RETURN JUMPDEST CALLVALUE DUP1 ISZERO PUSH2 0x5F0 JUMPI PUSH1 0x0 DUP1 REVERT JUMPDEST POP PUSH2 0x5F9 PUSH2 0x1FA2 JUMP JUMPDEST PUSH1 0x40 MLOAD PUSH2 0x606 SWAP2 SWAP1 PUSH2 0x2E29 JUMP JUMPDEST PUSH1 0x40 MLOAD DUP1 SWAP2 SUB SWAP1 RETURN JUMPDEST CALLVALUE DUP1 ISZERO PUSH2 0x61B JUMPI PUSH1 0x0 DUP1 REVERT JUMPDEST POP PUSH2 0x624 PUSH2 0x1FE8 JUMP JUMPDEST PUSH1 0x40 MLOAD PUSH2 0x631 SWAP2 SWAP1 PUSH2 0x2E29 JUMP JUMPDEST PUSH1 0x40 MLOAD DUP1 SWAP2 SUB SWAP1 RETURN JUMPDEST CALLVALUE DUP1 ISZERO PUSH2 0x646 JUMPI PUSH1 0x0 DUP1 REVERT JUMPDEST POP PUSH2 0x64F PUSH2 0x1FEE JUMP JUMPDEST PUSH1 0x40 MLOAD PUSH2 0x65C SWAP2 SWAP1 PUSH2 0x2E29 JUMP JUMPDEST PUSH1 0x40 MLOAD DUP1 SWAP2 SUB SWAP1 RETURN JUMPDEST CALLVALUE DUP1 ISZERO PUSH2 0x671 JUMPI PUSH1 0x0 DUP1 REVERT JUMPDEST POP PUSH2 0x68C PUSH1 0x4 DUP1 CALLDATASIZE SUB DUP2 ADD SWAP1 PUSH2 0x687 SWAP2 SWAP1 PUSH2 0x2DEB JUMP JUMPDEST PUSH2 0x1FF4 JUMP JUMPDEST PUSH1 0x40 MLOAD PUSH2 0x699 SWAP2 SWAP1 PUSH2 0x2FEA JUMP JUMPDEST PUSH1 0x40 MLOAD DUP1 SWAP2 SUB SWAP1 RETURN JUMPDEST PUSH2 0x6BC PUSH1 0x4 DUP1 CALLDATASIZE SUB DUP2 ADD SWAP1 PUSH2 0x6B7 SWAP2 SWAP1 PUSH2 0x30CC JUMP JUMPDEST PUSH2 0x2117 JUMP JUMPDEST STOP JUMPDEST CALLVALUE DUP1 ISZERO PUSH2 0x6CA JUMPI PUSH1 0x0 DUP1 REVERT JUMPDEST POP PUSH2 0x6E5 PUSH1 0x4 DUP1 CALLDATASIZE SUB DUP2 ADD SWAP1 PUSH2 0x6E0 SWAP2 SWAP1 PUSH2 0x3199 JUMP JUMPDEST PUSH2 0x26BF JUMP JUMPDEST PUSH1 0x40 MLOAD PUSH2 0x6F2 SWAP2 SWAP1 PUSH2 0x2E29 JUMP JUMPDEST PUSH1 0x40 MLOAD DUP1 SWAP2 SUB SWAP1 RETURN JUMPDEST CALLVALUE DUP1 ISZERO PUSH2 0x707 JUMPI PUSH1 0x0 DUP1 REVERT JUMPDEST POP PUSH2 0x710 PUSH2 0x26D7 JUMP JUMPDEST PUSH1 0x40 MLOAD PUSH2 0x71D SWAP2 SWAP1 PUSH2 0x2DC0 JUMP JUMPDEST PUSH1 0x40 MLOAD DUP1 SWAP2 SUB SWAP1 RETURN JUMPDEST PUSH2 0x73A PUSH8 0xFA1831453465BC0B PUSH1 0xC0 SHL PUSH2 0x26EA JUMP JUMPDEST PUSH2 0x74E PUSH8 0x23AD2312276B9B76 PUSH1 0xC0 SHL PUSH2 0x26EA JUMP JUMPDEST PUSH2 0x762 PUSH8 0x5331250253D698F4 PUSH1 0xC0 SHL PUSH2 0x26EA JUMP JUMPDEST PUSH1 0x0 PUSH2 0x76E DUP7 DUP7 PUSH2 0x1FF4 JUMP JUMPDEST SWAP1 POP PUSH2 0x784 PUSH8 0xA84687E8192F7BAB PUSH1 0xC0 SHL PUSH2 0x26EA JUMP JUMPDEST PUSH2 0x798 PUSH8 0x253CEB2717FFE26A PUSH1 0xC0 SHL PUSH2 0x26EA JUMP JUMPDEST PUSH1 0x0 PUSH1 0x3 PUSH1 0x0 DUP4 PUSH12 0xFFFFFFFFFFFFFFFFFFFFFFFF NOT AND PUSH12 0xFFFFFFFFFFFFFFFFFFFFFFFF NOT AND DUP2 MSTORE PUSH1 0x20 ADD SWAP1 DUP2 MSTORE PUSH1 0x20 ADD PUSH1 0x0 KECCAK256 SLOAD SWAP1 POP PUSH2 0x7E2 PUSH8 0xDE244D662875F6A9 PUSH1 0xC0 SHL PUSH2 0x26EA JUMP JUMPDEST PUSH2 0x7F6 PUSH8 0xC9B7727C657FC7F7 PUSH1 0xC0 SHL PUSH2 0x26EA JUMP JUMPDEST PUSH1 0x0 DUP2 SUB PUSH2 0x844 JUMPI PUSH2 0x812 PUSH8 0xF8DC57F8331C001F PUSH1 0xC0 SHL PUSH2 0x26EA JUMP JUMPDEST PUSH1 0x40 MLOAD PUSH32 0x80B71A9600000000000000000000000000000000000000000000000000000000 DUP2 MSTORE PUSH1 0x4 ADD PUSH1 0x40 MLOAD DUP1 SWAP2 SUB SWAP1 REVERT JUMPDEST PUSH2 0x858 PUSH8 0x54669C8EC3B4203D PUSH1 0xC0 SHL PUSH2 0x26EA JUMP JUMPDEST PUSH2 0x86C PUSH8 0x254F5BD170CFD411 PUSH1 0xC0 SHL PUSH2 0x26EA JUMP JUMPDEST PUSH2 0x880 PUSH8 0x5D734ED0E37656A5 PUSH1 0xC0 SHL PUSH2 0x26EA JUMP JUMPDEST PUSH2 0x88F DUP10 DUP10 DUP10 DUP10 DUP10 DUP10 DUP10 PUSH2 0x148F JUMP JUMPDEST PUSH2 0x8D9 JUMPI PUSH2 0x8A7 PUSH8 0x3C2F7AC131C8808D PUSH1 0xC0 SHL PUSH2 0x26EA JUMP JUMPDEST PUSH1 0x40 MLOAD PUSH32 0x5D7ED0C700000000000000000000000000000000000000000000000000000000 DUP2 MSTORE PUSH1 0x4 ADD PUSH1 0x40 MLOAD DUP1 SWAP2 SUB SWAP1 REVERT JUMPDEST PUSH2 0x8ED PUSH8 0xFC25ED55CBED785D PUSH1 0xC0 SHL PUSH2 0x26EA JUMP JUMPDEST PUSH2 0x901 PUSH8 0xC8B17612D402F941 PUSH1 0xC0 SHL PUSH2 0x26EA JUMP JUMPDEST PUSH2 0x915 PUSH8 0xDA5538B6F04B0AE0 PUSH1 0xC0 SHL PUSH2 0x26EA JUMP JUMPDEST PUSH1 0x0 DUP1 PUSH2 0x920 PUSH2 0xB03 JUMP JUMPDEST SWAP2 POP SWAP2 POP PUSH2 0x938 PUSH8 0x34A95BF9DA146646 PUSH1 0xC0 SHL PUSH2 0x26EA JUMP JUMPDEST PUSH2 0x94C PUSH8 0x5A8CCC4A8354D82C PUSH1 0xC0 SHL PUSH2 0x26EA JUMP JUMPDEST PUSH1 0x0 DUP2 DUP4 DUP6 PUSH2 0x95B SWAP2 SWAP1 PUSH2 0x31D2 JUMP JUMPDEST PUSH2 0x965 SWAP2 SWAP1 PUSH2 0x31F4 JUMP JUMPDEST SWAP1 POP PUSH2 0x97B PUSH8 0x1E43D3B7B8D7B366 PUSH1 0xC0 SHL PUSH2 0x26EA JUMP JUMPDEST PUSH1 0x0 PUSH1 0x3 PUSH1 0x0 DUP8 PUSH12 0xFFFFFFFFFFFFFFFFFFFFFFFF NOT AND PUSH12 0xFFFFFFFFFFFFFFFFFFFFFFFF NOT AND DUP2 MSTORE PUSH1 0x20 ADD SWAP1 DUP2 MSTORE PUSH1 0x20 ADD PUSH1 0x0 KECCAK256 DUP2 SWAP1 SSTORE POP PUSH2 0x9C6 PUSH8 0x991945B6D81B1A97 PUSH1 0xC0 SHL PUSH2 0x26EA JUMP JUMPDEST PUSH2 0x9DA PUSH8 0xDDDB802C8C9C720 PUSH1 0xC0 SHL PUSH2 0x26EA JUMP JUMPDEST DUP12 PUSH20 0xFFFFFFFFFFFFFFFFFFFFFFFFFFFFFFFFFFFFFFFF AND PUSH2 0x8FC DUP3 SWAP1 DUP2 ISZERO MUL SWAP1 PUSH1 0x40 MLOAD PUSH1 0x0 PUSH1 0x40 MLOAD DUP1 DUP4 SUB DUP2 DUP6 DUP9 DUP9 CALL SWAP4 POP POP POP POP ISZERO DUP1 ISZERO PUSH2 0xA20 JUMPI RETURNDATASIZE PUSH1 0x0 DUP1 RETURNDATACOPY RETURNDATASIZE PUSH1 0x0 REVERT JUMPDEST POP PUSH2 0xA35 PUSH8 0x669B8D3DDDD1CB82 PUSH1 0xC0 SHL PUSH2 0x26EA JUMP JUMPDEST PUSH2 0xA49 PUSH8 0xBB26999B341875F6 PUSH1 0xC0 SHL PUSH2 0x26EA JUMP JUMPDEST DUP5 PUSH12 0xFFFFFFFFFFFFFFFFFFFFFFFF NOT AND PUSH32 0x87263350249C13BDA2939C89DCB517D838E9F0C19D1E9546DE822A2D75E2204B DUP14 DUP4 DUP7 DUP7 PUSH1 0x40 MLOAD PUSH2 0xA8E SWAP5 SWAP4 SWAP3 SWAP2 SWAP1 PUSH2 0x321C JUMP JUMPDEST PUSH1 0x40 MLOAD DUP1 SWAP2 SUB SWAP1 LOG2 POP POP POP POP POP POP POP POP POP POP POP POP JUMP JUMPDEST PUSH1 0x6 PUSH1 0x0 SWAP1 SLOAD SWAP1 PUSH2 0x100 EXP SWAP1 DIV PUSH20 0xFFFFFFFFFFFFFFFFFFFFFFFFFFFFFFFFFFFFFFFF AND DUP2 JUMP JUMPDEST PUSH1 0x7 PUSH1 0x0 SWAP1 SLOAD SWAP1 PUSH2 0x100 EXP SWAP1 DIV PUSH20 0xFFFFFFFFFFFFFFFFFFFFFFFFFFFFFFFFFFFFFFFF AND DUP2 JUMP JUMPDEST PUSH1 0x4 PUSH1 0x0 SWAP1 SLOAD SWAP1 PUSH2 0x100 EXP SWAP1 DIV PUSH1 0xFF AND DUP2 JUMP JUMPDEST PUSH1 0x0 DUP1 PUSH2 0xB1A PUSH8 0x82036497ED8799A9 PUSH1 0xC0 SHL PUSH2 0x26EA JUMP JUMPDEST PUSH2 0xB2E PUSH8 0x3292B8695B3ED5AC PUSH1 0xC0 SHL PUSH2 0x26EA JUMP JUMPDEST PUSH2 0xB42 PUSH8 0xF55D12AB270A29AC PUSH1 0xC0 SHL PUSH2 0x26EA JUMP JUMPDEST PUSH1 0x4 PUSH1 0x0 SWAP1 SLOAD SWAP1 PUSH2 0x100 EXP SWAP1 DIV PUSH1 0xFF AND PUSH2 0xB9E JUMPI PUSH2 0xB6A PUSH8 0xB8140C7967DB27B5 PUSH1 0xC0 SHL PUSH2 0x26EA JUMP JUMPDEST PUSH2 0xB7E PUSH8 0x19403D7E5EFF20CB PUSH1 0xC0 SHL PUSH2 0x26EA JUMP JUMPDEST PUSH2 0xB92 PUSH8 0x22AF68C675CDDBA4 PUSH1 0xC0 SHL PUSH2 0x26EA JUMP JUMPDEST PUSH1 0x4 DUP1 SWAP2 POP SWAP2 POP PUSH2 0xCBC JUMP JUMPDEST PUSH2 0xBB2 PUSH8 0x253A9BF21CD8F92E PUSH1 0xC0 SHL PUSH2 0x26EA JUMP JUMPDEST PUSH2 0xBC6 PUSH8 0xFAFC3D654435CC22 PUSH1 0xC0 SHL PUSH2 0x26EA JUMP JUMPDEST PUSH1 0x4 PUSH1 0x1 SWAP1 SLOAD SWAP1 PUSH2 0x100 EXP SWAP1 DIV PUSH1 0xFF AND PUSH2 0xC23 JUMPI PUSH2 0xBEE PUSH8 0xFAA5418C706130F2 PUSH1 0xC0 SHL PUSH2 0x26EA JUMP JUMPDEST PUSH2 0xC02 PUSH8 0x58B4184385149E10 PUSH1 0xC0 SHL PUSH2 0x26EA JUMP JUMPDEST PUSH2 0xC16 PUSH8 0x58A2DC1334BD0C4A PUSH1 0xC0 SHL PUSH2 0x26EA JUMP JUMPDEST PUSH1 0x3 PUSH1 0x4 SWAP2 POP SWAP2 POP PUSH2 0xCBC JUMP JUMPDEST PUSH2 0xC36 PUSH7 0x14DCB4B4BC36AD PUSH1 0xC0 SHL PUSH2 0x26EA JUMP JUMPDEST PUSH2 0xC4A PUSH8 0xC95529DB7CA7569D PUSH1 0xC0 SHL PUSH2 0x26EA JUMP JUMPDEST PUSH1 0x4 PUSH1 0x2 SWAP1 SLOAD SWAP1 PUSH2 0x100 EXP SWAP1 DIV PUSH1 0xFF AND PUSH2 0xCA7 JUMPI PUSH2 0xC72 PUSH8 0xEB5A3B27A7D991F5 PUSH1 0xC0 SHL PUSH2 0x26EA JUMP JUMPDEST PUSH2 0xC86 PUSH8 0x4CA1CC1A9057AA15 PUSH1 0xC0 SHL PUSH2 0x26EA JUMP JUMPDEST PUSH2 0xC9A PUSH8 0xC83061F9D0076463 PUSH1 0xC0 SHL PUSH2 0x26EA JUMP JUMPDEST PUSH1 0x2 PUSH1 0x4 SWAP2 POP SWAP2 POP PUSH2 0xCBC JUMP JUMPDEST PUSH2 0xCBB PUSH8 0x9C172BA18FFB96F8 PUSH1 0xC0 SHL PUSH2 0x26EA JUMP JUMPDEST JUMPDEST SWAP1 SWAP2 JUMP JUMPDEST PUSH1 0x0 PUSH2 0xCD6 PUSH8 0xA402A7083735827A PUSH1 0xC0 SHL PUSH2 0x26EA JUMP JUMPDEST PUSH2 0xCEA PUSH8 0x57740B5DE78F2866 PUSH1 0xC0 SHL PUSH2 0x26EA JUMP JUMPDEST PUSH2 0xCFE PUSH8 0x204FCBB27365FA49 PUSH1 0xC0 SHL PUSH2 0x26EA JUMP JUMPDEST DUP3 DUP3 PUSH1 0x40 MLOAD PUSH1 0x20 ADD PUSH2 0xD11 SWAP3 SWAP2 SWAP1 PUSH2 0x324A JUMP JUMPDEST PUSH1 0x40 MLOAD PUSH1 0x20 DUP2 DUP4 SUB SUB DUP2 MSTORE SWAP1 PUSH1 0x40 MSTORE DUP1 MLOAD SWAP1 PUSH1 0x20 ADD KECCAK256 PUSH1 0x0 SHR SWAP1 POP SWAP3 SWAP2 POP POP JUMP JUMPDEST PUSH1 0x1 SLOAD DUP2 JUMP JUMPDEST PUSH1 0x0 PUSH2 0xD4E PUSH8 0xE4F7CEE7DCC1E3A7 PUSH1 0xC0 SHL PUSH2 0x26EA JUMP JUMPDEST PUSH2 0xD62 PUSH8 0xC09FB6FF6C1503C5 PUSH1 0xC0 SHL PUSH2 0x26EA JUMP JUMPDEST PUSH2 0xD76 PUSH8 0x9F383363DECA6CD6 PUSH1 0xC0 SHL PUSH2 0x26EA JUMP JUMPDEST PUSH2 0xD88 PUSH2 0xD83 DUP5 DUP5 PUSH2 0x19C6 JUMP JUMPDEST PUSH2 0x138D JUMP JUMPDEST SWAP1 POP SWAP3 SWAP2 POP POP JUMP JUMPDEST PUSH1 0x0 PUSH2 0xDA6 PUSH8 0x40B6BD68D8DB785 PUSH1 0xC0 SHL PUSH2 0x26EA JUMP JUMPDEST PUSH2 0xDBA PUSH8 0xAE8F8FC87559366 PUSH1 0xC0 SHL PUSH2 0x26EA JUMP JUMPDEST PUSH2 0xDCE PUSH8 0xA4A18A92AE2779BD PUSH1 0xC0 SHL PUSH2 0x26EA JUMP JUMPDEST PUSH2 0xDD6 PUSH2 0x1699 JUMP JUMPDEST TIMESTAMP LT ISZERO PUSH2 0xE23 JUMPI PUSH2 0xDF1 PUSH8 0xBA016B27E55B7D1F PUSH1 0xC0 SHL PUSH2 0x26EA JUMP JUMPDEST PUSH1 0x40 MLOAD PUSH32 0x153D51B900000000000000000000000000000000000000000000000000000000 DUP2 MSTORE PUSH1 0x4 ADD PUSH1 0x40 MLOAD DUP1 SWAP2 SUB SWAP1 REVERT JUMPDEST PUSH2 0xE37 PUSH8 0x970D2B89ECC0A446 PUSH1 0xC0 SHL PUSH2 0x26EA JUMP JUMPDEST PUSH2 0xE4B PUSH8 0xA55FCDCEEAD29BF9 PUSH1 0xC0 SHL PUSH2 0x26EA JUMP JUMPDEST PUSH2 0xE5F PUSH8 0x71874CB9A0A645A PUSH1 0xC0 SHL PUSH2 0x26EA JUMP JUMPDEST PUSH1 0x4 PUSH1 0x1 SWAP1 SLOAD SWAP1 PUSH2 0x100 EXP SWAP1 DIV PUSH1 0xFF AND PUSH2 0xEB9 JUMPI PUSH2 0xE87 PUSH8 0x468CDA73E34B8EC7 PUSH1 0xC0 SHL PUSH2 0x26EA JUMP JUMPDEST PUSH1 0x40 MLOAD PUSH32 0x1E5A53D300000000000000000000000000000000000000000000000000000000 DUP2 MSTORE PUSH1 0x4 ADD PUSH1 0x40 MLOAD DUP1 SWAP2 SUB SWAP1 REVERT JUMPDEST PUSH2 0xECD PUSH8 0xF550C98A35CB929B PUSH1 0xC0 SHL PUSH2 0x26EA JUMP JUMPDEST PUSH2 0xEE1 PUSH8 0xE83E8EB11C60E0EE PUSH1 0xC0 SHL PUSH2 0x26EA JUMP JUMPDEST PUSH2 0xEF5 PUSH8 0xC141C782EA31D6BE PUSH1 0xC0 SHL PUSH2 0x26EA JUMP JUMPDEST PUSH1 0x4 PUSH1 0x2 SWAP1 SLOAD SWAP1 PUSH2 0x100 EXP SWAP1 DIV PUSH1 0xFF AND ISZERO PUSH2 0xF50 JUMPI PUSH2 0xF1E PUSH8 0xD2D11A4FC47297BC PUSH1 0xC0 SHL PUSH2 0x26EA JUMP JUMPDEST PUSH1 0x40 MLOAD PUSH32 0x598347C500000000000000000000000000000000000000000000000000000000 DUP2 MSTORE PUSH1 0x4 ADD PUSH1 0x40 MLOAD DUP1 SWAP2 SUB SWAP1 REVERT JUMPDEST PUSH2 0xF64 PUSH8 0x7CF9BDC6ED0D8FB4 PUSH1 0xC0 SHL PUSH2 0x26EA JUMP JUMPDEST PUSH2 0xF78 PUSH8 0xCF36CA99CDCF8C5B PUSH1 0xC0 SHL PUSH2 0x26EA JUMP JUMPDEST PUSH1 0x1 PUSH1 0x4 PUSH1 0x2 PUSH2 0x100 EXP DUP2 SLOAD DUP2 PUSH1 0xFF MUL NOT AND SWAP1 DUP4 ISZERO ISZERO MUL OR SWAP1 SSTORE POP PUSH2 0xFA7 PUSH8 0xB253C335BD8BA011 PUSH1 0xC0 SHL PUSH2 0x26EA JUMP JUMPDEST PUSH2 0xFBB PUSH8 0xB5DCA7D89FA0A066 PUSH1 0xC0 SHL PUSH2 0x26EA JUMP JUMPDEST PUSH1 0x0 ADDRESS PUSH20 0xFFFFFFFFFFFFFFFFFFFFFFFFFFFFFFFFFFFFFFFF AND BALANCE SWAP1 POP PUSH2 0xFEB PUSH8 0x34143547CC95477 PUSH1 0xC0 SHL PUSH2 0x26EA JUMP JUMPDEST PUSH2 0xFFF PUSH8 0x9B5314367745548D PUSH1 0xC0 SHL PUSH2 0x26EA JUMP JUMPDEST PUSH2 0x1008 DUP2 PUSH2 0x26ED JUMP JUMPDEST PUSH2 0x101C PUSH8 0xFA73597083E6E97D PUSH1 0xC0 SHL PUSH2 0x26EA JUMP JUMPDEST PUSH2 0x1030 PUSH8 0x34A98AC66DC2978 PUSH1 0xC0 SHL PUSH2 0x26EA JUMP JUMPDEST DUP1 SWAP2 POP POP SWAP1 JUMP JUMPDEST PUSH1 0x0 PUSH2 0x104D PUSH8 0x465BDF24C39B60BC PUSH1 0xC0 SHL PUSH2 0x26EA JUMP JUMPDEST PUSH2 0x1061 PUSH8 0x893EE43BDA015AF9 PUSH1 0xC0 SHL PUSH2 0x26EA JUMP JUMPDEST PUSH2 0x1075 PUSH8 0x10B80A0AF34BF995 PUSH1 0xC0 SHL PUSH2 0x26EA JUMP JUMPDEST PUSH2 0x107D PUSH2 0x1FA2 JUMP JUMPDEST TIMESTAMP LT ISZERO PUSH2 0x10CA JUMPI PUSH2 0x1098 PUSH8 0x12A2426EDB53EA89 PUSH1 0xC0 SHL PUSH2 0x26EA JUMP JUMPDEST PUSH1 0x40 MLOAD PUSH32 0x153D51B900000000000000000000000000000000000000000000000000000000 DUP2 MSTORE PUSH1 0x4 ADD PUSH1 0x40 MLOAD DUP1 SWAP2 SUB SWAP1 REVERT JUMPDEST PUSH2 0x10DE PUSH8 0x746C8BE03DDB35CE PUSH1 0xC0 SHL PUSH2 0x26EA JUMP JUMPDEST PUSH2 0x10F2 PUSH8 0xC5DA25909C03837B PUSH1 0xC0 SHL PUSH2 0x26EA JUMP JUMPDEST PUSH2 0x1106 PUSH8 0xCB47B2E04FA7DB4D PUSH1 0xC0 SHL PUSH2 0x26EA JUMP JUMPDEST PUSH1 0x4 PUSH1 0x0 SWAP1 SLOAD SWAP1 PUSH2 0x100 EXP SWAP1 DIV PUSH1 0xFF AND ISZERO PUSH2 0x1175 JUMPI PUSH2 0x112F PUSH8 0x583B5569FA1350C7 PUSH1 0xC0 SHL PUSH2 0x26EA JUMP JUMPDEST PUSH2 0x1143 PUSH8 0x1E03D7D22A070D82 PUSH1 0xC0 SHL PUSH2 0x26EA JUMP JUMPDEST PUSH1 0x40 MLOAD PUSH32 0x598347C500000000000000000000000000000000000000000000000000000000 DUP2 MSTORE PUSH1 0x4 ADD PUSH1 0x40 MLOAD DUP1 SWAP2 SUB SWAP1 REVERT JUMPDEST PUSH2 0x1189 PUSH8 0xAB345BA96902BE65 PUSH1 0xC0 SHL PUSH2 0x26EA JUMP JUMPDEST PUSH2 0x119D PUSH8 0xAD8B2771A7F44618 PUSH1 0xC0 SHL PUSH2 0x26EA JUMP JUMPDEST PUSH1 0x1 PUSH1 0x4 PUSH1 0x0 PUSH2 0x100 EXP DUP2 SLOAD DUP2 PUSH1 0xFF MUL NOT AND SWAP1 DUP4 ISZERO ISZERO MUL OR SWAP1 SSTORE POP PUSH2 0x11CC PUSH8 0x10E15D57D5E31407 PUSH1 0xC0 SHL PUSH2 0x26EA JUMP JUMPDEST PUSH2 0x11E0 PUSH8 0x394C8332F1BE9887 PUSH1 0xC0 SHL PUSH2 0x26EA JUMP JUMPDEST PUSH1 0x0 ADDRESS PUSH20 0xFFFFFFFFFFFFFFFFFFFFFFFFFFFFFFFFFFFFFFFF AND BALANCE SWAP1 POP PUSH2 0x1210 PUSH8 0x989ED965B2D5D777 PUSH1 0xC0 SHL PUSH2 0x26EA JUMP JUMPDEST PUSH2 0x1224 PUSH8 0x41BBEB2745A13816 PUSH1 0xC0 SHL PUSH2 0x26EA JUMP JUMPDEST PUSH1 0x0 PUSH1 0x4 DUP3 PUSH2 0x1233 SWAP2 SWAP1 PUSH2 0x31F4 JUMP JUMPDEST SWAP1 POP PUSH2 0x1249 PUSH8 0xBBF6AD314CF216DD PUSH1 0xC0 SHL PUSH2 0x26EA JUMP JUMPDEST PUSH2 0x125D PUSH8 0x791160998C508030 PUSH1 0xC0 SHL PUSH2 0x26EA JUMP JUMPDEST PUSH2 0x1266 DUP2 PUSH2 0x26ED JUMP JUMPDEST PUSH2 0x127A PUSH8 0x3E75C32BB9652E1E PUSH1 0xC0 SHL PUSH2 0x26EA JUMP JUMPDEST PUSH2 0x128E PUSH8 0x2A145079AB2D2419 PUSH1 0xC0 SHL PUSH2 0x26EA JUMP JUMPDEST DUP1 SWAP3 POP POP POP SWAP1 JUMP JUMPDEST PUSH1 0x8 DUP1 SLOAD PUSH2 0x12A3 SWAP1 PUSH2 0x3262 JUMP JUMPDEST DUP1 PUSH1 0x1F ADD PUSH1 0x20 DUP1 SWAP2 DIV MUL PUSH1 0x20 ADD PUSH1 0x40 MLOAD SWAP1 DUP2 ADD PUSH1 0x40 MSTORE DUP1 SWAP3 SWAP2 SWAP1 DUP2 DUP2 MSTORE PUSH1 0x20 ADD DUP3 DUP1 SLOAD PUSH2 0x12CF SWAP1 PUSH2 0x3262 JUMP JUMPDEST DUP1 ISZERO PUSH2 0x131C JUMPI DUP1 PUSH1 0x1F LT PUSH2 0x12F1 JUMPI PUSH2 0x100 DUP1 DUP4 SLOAD DIV MUL DUP4 MSTORE SWAP2 PUSH1 0x20 ADD SWAP2 PUSH2 0x131C JUMP JUMPDEST DUP3 ADD SWAP2 SWAP1 PUSH1 0x0 MSTORE PUSH1 0x20 PUSH1 0x0 KECCAK256 SWAP1 JUMPDEST DUP2 SLOAD DUP2 MSTORE SWAP1 PUSH1 0x1 ADD SWAP1 PUSH1 0x20 ADD DUP1 DUP4 GT PUSH2 0x12FF JUMPI DUP3 SWAP1 SUB PUSH1 0x1F AND DUP3 ADD SWAP2 JUMPDEST POP POP POP POP POP DUP2 JUMP JUMPDEST PUSH1 0x4 PUSH1 0x1 SWAP1 SLOAD SWAP1 PUSH2 0x100 EXP SWAP1 DIV PUSH1 0xFF AND DUP2 JUMP JUMPDEST PUSH4 0x1E28500 DUP2 JUMP JUMPDEST PUSH1 0x0 PUSH2 0x1355 PUSH8 0x2ADE90F92A76E3B PUSH1 0xC0 SHL PUSH2 0x26EA JUMP JUMPDEST PUSH2 0x1369 PUSH8 0xCDA4243F6DC8EA60 PUSH1 0xC0 SHL PUSH2 0x26EA JUMP JUMPDEST PUSH2 0x137D PUSH8 0x9126DC7883C1D099 PUSH1 0xC0 SHL PUSH2 0x26EA JUMP JUMPDEST PUSH1 0x1 SLOAD SWAP1 POP SWAP1 JUMP JUMPDEST PUSH4 0x1E13380 DUP2 JUMP JUMPDEST PUSH1 0x0 PUSH2 0x13A3 PUSH8 0xB3970BA3C1E29BD9 PUSH1 0xC0 SHL PUSH2 0x26EA JUMP JUMPDEST PUSH2 0x13B7 PUSH8 0x54CCE9F295BD065 PUSH1 0xC0 SHL PUSH2 0x26EA JUMP JUMPDEST PUSH2 0x13CB PUSH8 0x36A6E92609D9ECDC PUSH1 0xC0 SHL PUSH2 0x26EA JUMP JUMPDEST PUSH1 0x2 DUP1 DUP4 PUSH1 0x40 MLOAD PUSH2 0x13DC SWAP2 SWAP1 PUSH2 0x32BE JUMP JUMPDEST PUSH1 0x20 PUSH1 0x40 MLOAD DUP1 DUP4 SUB DUP2 DUP6 GAS STATICCALL ISZERO DUP1 ISZERO PUSH2 0x13F9 JUMPI RETURNDATASIZE PUSH1 0x0 DUP1 RETURNDATACOPY RETURNDATASIZE PUSH1 0x0 REVERT JUMPDEST POP POP POP PUSH1 0x40 MLOAD RETURNDATASIZE PUSH1 0x1F NOT PUSH1 0x1F DUP3 ADD AND DUP3 ADD DUP1 PUSH1 0x40 MSTORE POP DUP2 ADD SWAP1 PUSH2 0x141C SWAP2 SWAP1 PUSH2 0x32DC JUMP JUMPDEST PUSH1 0x40 MLOAD PUSH1 0x20 ADD PUSH2 0x142C SWAP2 SWAP1 PUSH2 0x32F8 JUMP JUMPDEST PUSH1 0x40 MLOAD PUSH1 0x20 DUP2 DUP4 SUB SUB DUP2 MSTORE SWAP1 PUSH1 0x40 MSTORE PUSH1 0x40 MLOAD PUSH2 0x1448 SWAP2 SWAP1 PUSH2 0x32BE JUMP JUMPDEST PUSH1 0x20 PUSH1 0x40 MLOAD DUP1 DUP4 SUB DUP2 DUP6 GAS STATICCALL ISZERO DUP1 ISZERO PUSH2 0x1465 JUMPI RETURNDATASIZE PUSH1 0x0 DUP1 RETURNDATACOPY RETURNDATASIZE PUSH1 0x0 REVERT JUMPDEST POP POP POP PUSH1 0x40 MLOAD RETURNDATASIZE PUSH1 0x1F NOT PUSH1 0x1F DUP3 ADD AND DUP3 ADD DUP1 PUSH1 0x40 MSTORE POP DUP2 ADD SWAP1 PUSH2 0x1488 SWAP2 SWAP1 PUSH2 0x32DC JUMP JUMPDEST SWAP1 POP SWAP2 SWAP1 POP JUMP JUMPDEST PUSH1 0x0 PUSH2 0x14A5 PUSH8 0x9344FD1CA4F1013B PUSH1 0xC0 SHL PUSH2 0x26EA JUMP JUMPDEST PUSH2 0x14B9 PUSH8 0xB35A66395A1517F0 PUSH1 0xC0 SHL PUSH2 0x26EA JUMP JUMPDEST PUSH2 0x14CD PUSH8 0xAEF19366019D222F PUSH1 0xC0 SHL PUSH2 0x26EA JUMP JUMPDEST PUSH1 0x1B DUP5 PUSH1 0xFF AND LT DUP1 ISZERO PUSH2 0x14F0 JUMPI POP PUSH2 0x14EF PUSH8 0x6927B1B1003E2A82 PUSH1 0xC0 SHL PUSH2 0x2899 JUMP JUMPDEST JUMPDEST DUP1 PUSH2 0x151A JUMPI POP PUSH1 0x1E DUP5 PUSH1 0xFF AND GT DUP1 ISZERO PUSH2 0x1519 JUMPI POP PUSH2 0x1518 PUSH8 0x480C06167076A3F8 PUSH1 0xC0 SHL PUSH2 0x2899 JUMP JUMPDEST JUMPDEST JUMPDEST ISZERO PUSH2 0x1565 JUMPI PUSH2 0x1533 PUSH8 0x803A03B429DF4959 PUSH1 0xC0 SHL PUSH2 0x26EA JUMP JUMPDEST PUSH1 0x40 MLOAD PUSH32 0xC360D95200000000000000000000000000000000000000000000000000000000 DUP2 MSTORE PUSH1 0x4 ADD PUSH1 0x40 MLOAD DUP1 SWAP2 SUB SWAP1 REVERT JUMPDEST PUSH2 0x1579 PUSH8 0x8253C93BE05155BD PUSH1 0xC0 SHL PUSH2 0x26EA JUMP JUMPDEST PUSH2 0x158D PUSH8 0x1525BE57B7C8B7B3 PUSH1 0xC0 SHL PUSH2 0x26EA JUMP JUMPDEST PUSH2 0x15A1 PUSH8 0xE347C4C0B356490E PUSH1 0xC0 SHL PUSH2 0x26EA JUMP JUMPDEST PUSH1 0x0 PUSH2 0x15AD DUP8 DUP8 PUSH2 0xCC0 JUMP JUMPDEST SWAP1 POP PUSH2 0x15C3 PUSH8 0xA028DDA12ACDAC94 PUSH1 0xC0 SHL PUSH2 0x26EA JUMP JUMPDEST PUSH2 0x15D7 PUSH8 0xB4CD9976F3AA9687 PUSH1 0xC0 SHL PUSH2 0x26EA JUMP JUMPDEST PUSH1 0x0 PUSH2 0x15E3 DUP11 DUP11 PUSH2 0xD38 JUMP JUMPDEST SWAP1 POP PUSH2 0x15F9 PUSH8 0x5CE9FE51E002BBBF PUSH1 0xC0 SHL PUSH2 0x26EA JUMP JUMPDEST PUSH2 0x160D PUSH8 0x4645CABB2280F2F6 PUSH1 0xC0 SHL PUSH2 0x26EA JUMP JUMPDEST DUP2 PUSH20 0xFFFFFFFFFFFFFFFFFFFFFFFFFFFFFFFFFFFFFFFF AND PUSH1 0x1 DUP3 DUP9 DUP9 DUP9 PUSH1 0x40 MLOAD PUSH1 0x0 DUP2 MSTORE PUSH1 0x20 ADD PUSH1 0x40 MSTORE PUSH1 0x40 MLOAD PUSH2 0x1647 SWAP5 SWAP4 SWAP3 SWAP2 SWAP1 PUSH2 0x3309 JUMP JUMPDEST PUSH1 0x20 PUSH1 0x40 MLOAD PUSH1 0x20 DUP2 SUB SWAP1 DUP1 DUP5 SUB SWAP1 DUP6 GAS STATICCALL ISZERO DUP1 ISZERO PUSH2 0x1669 JUMPI RETURNDATASIZE PUSH1 0x0 DUP1 RETURNDATACOPY RETURNDATASIZE PUSH1 0x0 REVERT JUMPDEST POP POP POP PUSH1 0x20 PUSH1 0x40 MLOAD SUB MLOAD PUSH20 0xFFFFFFFFFFFFFFFFFFFFFFFFFFFFFFFFFFFFFFFF AND EQ SWAP3 POP POP POP SWAP8 SWAP7 POP POP POP POP POP POP POP JUMP JUMPDEST PUSH1 0x0 PUSH2 0x16AF PUSH8 0x236BE2508A6A0CFF PUSH1 0xC0 SHL PUSH2 0x26EA JUMP JUMPDEST PUSH2 0x16C3 PUSH8 0x461B04935A253C57 PUSH1 0xC0 SHL PUSH2 0x26EA JUMP JUMPDEST PUSH2 0x16D7 PUSH8 0x24EE045183F005E PUSH1 0xC0 SHL PUSH2 0x26EA JUMP JUMPDEST PUSH1 0x2 SLOAD SWAP1 POP SWAP1 JUMP JUMPDEST PUSH1 0x2 SLOAD DUP2 JUMP JUMPDEST PUSH1 0x0 PUSH2 0x16FB PUSH8 0xB990B848160F43DB PUSH1 0xC0 SHL PUSH2 0x26EA JUMP JUMPDEST PUSH2 0x170F PUSH8 0x4CF6B1446C126D2C PUSH1 0xC0 SHL PUSH2 0x26EA JUMP JUMPDEST PUSH2 0x1723 PUSH8 0x96CC8EFC9212106A PUSH1 0xC0 SHL PUSH2 0x26EA JUMP JUMPDEST PUSH2 0x172B PUSH2 0x133F JUMP JUMPDEST TIMESTAMP LT ISZERO PUSH2 0x1778 JUMPI PUSH2 0x1746 PUSH8 0x3D9C7CFDD76DF04 PUSH1 0xC0 SHL PUSH2 0x26EA JUMP JUMPDEST PUSH1 0x40 MLOAD PUSH32 0x153D51B900000000000000000000000000000000000000000000000000000000 DUP2 MSTORE PUSH1 0x4 ADD PUSH1 0x40 MLOAD DUP1 SWAP2 SUB SWAP1 REVERT JUMPDEST PUSH2 0x178C PUSH8 0x1DCE55775F2F4187 PUSH1 0xC0 SHL PUSH2 0x26EA JUMP JUMPDEST PUSH2 0x17A0 PUSH8 0x5A3A3AF042968AA1 PUSH1 0xC0 SHL PUSH2 0x26EA JUMP JUMPDEST PUSH2 0x17B4 PUSH8 0x1625BE625B99C0B2 PUSH1 0xC0 SHL PUSH2 0x26EA JUMP JUMPDEST PUSH1 0x4 PUSH1 0x0 SWAP1 SLOAD SWAP1 PUSH2 0x100 EXP SWAP1 DIV PUSH1 0xFF AND PUSH2 0x180E JUMPI PUSH2 0x17DC PUSH8 0xFB84BCE59E3A14A0 PUSH1 0xC0 SHL PUSH2 0x26EA JUMP JUMPDEST PUSH1 0x40 MLOAD PUSH32 0x1E5A53D300000000000000000000000000000000000000000000000000000000 DUP2 MSTORE PUSH1 0x4 ADD PUSH1 0x40 MLOAD DUP1 SWAP2 SUB SWAP1 REVERT JUMPDEST PUSH2 0x1822 PUSH8 0xCD85C9D24579080C PUSH1 0xC0 SHL PUSH2 0x26EA JUMP JUMPDEST PUSH2 0x1836 PUSH8 0x63D602D8FE2ADF7A PUSH1 0xC0 SHL PUSH2 0x26EA JUMP JUMPDEST PUSH2 0x184A PUSH8 0xD915AD96CE841A36 PUSH1 0xC0 SHL PUSH2 0x26EA JUMP JUMPDEST PUSH1 0x4 PUSH1 0x1 SWAP1 SLOAD SWAP1 PUSH2 0x100 EXP SWAP1 DIV PUSH1 0xFF AND ISZERO PUSH2 0x18A5 JUMPI PUSH2 0x1873 PUSH8 0x4CDB675FF5DC04E2 PUSH1 0xC0 SHL PUSH2 0x26EA JUMP JUMPDEST PUSH1 0x40 MLOAD PUSH32 0x598347C500000000000000000000000000000000000000000000000000000000 DUP2 MSTORE PUSH1 0x4 ADD PUSH1 0x40 MLOAD DUP1 SWAP2 SUB SWAP1 REVERT JUMPDEST PUSH2 0x18B9 PUSH8 0xB4ED0821EF6C02EF PUSH1 0xC0 SHL PUSH2 0x26EA JUMP JUMPDEST PUSH2 0x18CD PUSH8 0x9EC4F082FC8296D0 PUSH1 0xC0 SHL PUSH2 0x26EA JUMP JUMPDEST PUSH1 0x1 PUSH1 0x4 PUSH1 0x1 PUSH2 0x100 EXP DUP2 SLOAD DUP2 PUSH1 0xFF MUL NOT AND SWAP1 DUP4 ISZERO ISZERO MUL OR SWAP1 SSTORE POP PUSH2 0x18FC PUSH8 0xB7161FE1B8C19C7B PUSH1 0xC0 SHL PUSH2 0x26EA JUMP JUMPDEST PUSH2 0x1910 PUSH8 0x4922AAE37367B61E PUSH1 0xC0 SHL PUSH2 0x26EA JUMP JUMPDEST PUSH1 0x0 ADDRESS PUSH20 0xFFFFFFFFFFFFFFFFFFFFFFFFFFFFFFFFFFFFFFFF AND BALANCE SWAP1 POP PUSH2 0x1940 PUSH8 0xF252DE9D3251AE0F PUSH1 0xC0 SHL PUSH2 0x26EA JUMP JUMPDEST PUSH2 0x1954 PUSH8 0x7E58EDCEEE9E1EE3 PUSH1 0xC0 SHL PUSH2 0x26EA JUMP JUMPDEST PUSH1 0x0 PUSH1 0x3 DUP3 PUSH2 0x1963 SWAP2 SWAP1 PUSH2 0x31F4 JUMP JUMPDEST SWAP1 POP PUSH2 0x1979 PUSH8 0xE43932227C2BB02C PUSH1 0xC0 SHL PUSH2 0x26EA JUMP JUMPDEST PUSH2 0x198D PUSH8 0x2AFAAEA8259CD63F PUSH1 0xC0 SHL PUSH2 0x26EA JUMP JUMPDEST PUSH2 0x1996 DUP2 PUSH2 0x26ED JUMP JUMPDEST PUSH2 0x19AA PUSH8 0x3CE862DDF31FE856 PUSH1 0xC0 SHL PUSH2 0x26EA JUMP JUMPDEST PUSH2 0x19BE PUSH8 0x2DEE1D3C9E170FE5 PUSH1 0xC0 SHL PUSH2 0x26EA JUMP JUMPDEST DUP1 SWAP3 POP POP POP SWAP1 JUMP JUMPDEST PUSH1 0x60 PUSH2 0x19DC PUSH8 0xECC36640EACEF300 PUSH1 0xC0 SHL PUSH2 0x26EA JUMP JUMPDEST PUSH2 0x19F0 PUSH8 0x95F87297AC35762A PUSH1 0xC0 SHL PUSH2 0x26EA JUMP JUMPDEST PUSH2 0x1A04 PUSH8 0x51F1F77F906E6528 PUSH1 0xC0 SHL PUSH2 0x26EA JUMP JUMPDEST PUSH1 0x0 PUSH2 0x1A0F DUP5 PUSH2 0x1ACB JUMP JUMPDEST SWAP1 POP PUSH2 0x1A25 PUSH8 0x46FC764624C272D8 PUSH1 0xC0 SHL PUSH2 0x26EA JUMP JUMPDEST PUSH2 0x1A39 PUSH8 0x3BDD6645FB52BFED PUSH1 0xC0 SHL PUSH2 0x26EA JUMP JUMPDEST PUSH1 0x18 PUSH32 0x4469616D6F6E64205369676E6564204D6573736167653A0A0000000000000000 DUP5 MLOAD PUSH1 0x2 DUP1 PUSH1 0x14 PUSH2 0x1A6D SWAP2 SWAP1 PUSH2 0x3332 JUMP JUMPDEST PUSH1 0x8 DUP1 SLOAD PUSH2 0x1A7A SWAP1 PUSH2 0x3262 JUMP JUMPDEST SWAP1 POP PUSH2 0x1A86 SWAP2 SWAP1 PUSH2 0x335A JUMP JUMPDEST PUSH2 0x1A90 SWAP2 SWAP1 PUSH2 0x335A JUMP JUMPDEST PUSH2 0x1A9A SWAP2 SWAP1 PUSH2 0x335A JUMP JUMPDEST PUSH1 0x8 DUP5 DUP8 PUSH1 0x40 MLOAD PUSH1 0x20 ADD PUSH2 0x1AB3 SWAP7 SWAP6 SWAP5 SWAP4 SWAP3 SWAP2 SWAP1 PUSH2 0x3390 JUMP JUMPDEST PUSH1 0x40 MLOAD PUSH1 0x20 DUP2 DUP4 SUB SUB DUP2 MSTORE SWAP1 PUSH1 0x40 MSTORE SWAP2 POP POP SWAP3 SWAP2 POP POP JUMP JUMPDEST PUSH1 0x60 PUSH2 0x1AE1 PUSH8 0xF5DFE985534A56A3 PUSH1 0xC0 SHL PUSH2 0x26EA JUMP JUMPDEST PUSH2 0x1AF5 PUSH8 0xCB7AA4571E1715A3 PUSH1 0xC0 SHL PUSH2 0x26EA JUMP JUMPDEST PUSH2 0x1B09 PUSH8 0x84C872D47B169F1 PUSH1 0xC0 SHL PUSH2 0x26EA JUMP JUMPDEST PUSH1 0x0 PUSH1 0x2 PUSH1 0x14 PUSH2 0x1B19 SWAP2 SWAP1 PUSH2 0x3332 JUMP JUMPDEST PUSH1 0xFF AND PUSH8 0xFFFFFFFFFFFFFFFF DUP2 GT ISZERO PUSH2 0x1B35 JUMPI PUSH2 0x1B34 PUSH2 0x2C44 JUMP JUMPDEST JUMPDEST PUSH1 0x40 MLOAD SWAP1 DUP1 DUP3 MSTORE DUP1 PUSH1 0x1F ADD PUSH1 0x1F NOT AND PUSH1 0x20 ADD DUP3 ADD PUSH1 0x40 MSTORE DUP1 ISZERO PUSH2 0x1B67 JUMPI DUP2 PUSH1 0x20 ADD PUSH1 0x1 DUP3 MUL DUP1 CALLDATASIZE DUP4 CALLDATACOPY DUP1 DUP3 ADD SWAP2 POP POP SWAP1 POP JUMPDEST POP SWAP1 POP PUSH2 0x1B7E PUSH8 0x243082381318DCE5 PUSH1 0xC0 SHL PUSH2 0x26EA JUMP JUMPDEST PUSH2 0x1B92 PUSH8 0x7F3B27BFE44AA591 PUSH1 0xC0 SHL PUSH2 0x26EA JUMP JUMPDEST PUSH2 0x1BB5 DUP2 DUP5 PUSH1 0x60 SHL PUSH12 0xFFFFFFFFFFFFFFFFFFFFFFFF NOT AND PUSH1 0x0 PUSH1 0x14 PUSH1 0xFF AND PUSH2 0x28A4 JUMP JUMPDEST PUSH2 0x1BC9 PUSH8 0xA4244FA289A4687A PUSH1 0xC0 SHL PUSH2 0x26EA JUMP JUMPDEST PUSH2 0x1BDD PUSH8 0x428C4C366C2B4606 PUSH1 0xC0 SHL PUSH2 0x26EA JUMP JUMPDEST PUSH1 0x0 DUP2 DUP1 MLOAD SWAP1 PUSH1 0x20 ADD KECCAK256 SWAP1 POP PUSH2 0x1BFD PUSH8 0x1997EFB9A826289E PUSH1 0xC0 SHL PUSH2 0x26EA JUMP JUMPDEST PUSH2 0x1C11 PUSH8 0x2E43A2FC3FC80174 PUSH1 0xC0 SHL PUSH2 0x26EA JUMP JUMPDEST PUSH1 0x0 PUSH2 0x1C27 PUSH8 0xF407964A2E07AB68 PUSH1 0xC0 SHL PUSH2 0x26EA JUMP JUMPDEST PUSH2 0x1C3B PUSH8 0x9C47A1FDB97761D2 PUSH1 0xC0 SHL PUSH2 0x26EA JUMP JUMPDEST PUSH1 0x0 JUMPDEST PUSH1 0x14 PUSH1 0xFF AND DUP2 LT ISZERO PUSH2 0x1D2C JUMPI PUSH2 0x1C5E PUSH8 0x606472ACD4FDAADC PUSH1 0xC0 SHL PUSH2 0x26EA JUMP JUMPDEST PUSH2 0x1C72 PUSH8 0xA61675EB9F5469B0 PUSH1 0xC0 SHL PUSH2 0x26EA JUMP JUMPDEST PUSH1 0x0 DUP4 DUP3 PUSH1 0x20 DUP2 LT PUSH2 0x1C87 JUMPI PUSH2 0x1C86 PUSH2 0x3484 JUMP JUMPDEST JUMPDEST BYTE PUSH1 0xF8 SHL PUSH1 0xF8 SHR SWAP1 POP PUSH2 0x1CA4 PUSH8 0xCFCA5678F933042B PUSH1 0xC0 SHL PUSH2 0x26EA JUMP JUMPDEST PUSH2 0x1CB8 PUSH8 0x21B9D60E1769A0B7 PUSH1 0xC0 SHL PUSH2 0x26EA JUMP JUMPDEST PUSH2 0x1CD6 DUP6 DUP5 DUP1 PUSH2 0x1CC7 SWAP1 PUSH2 0x349A JUMP JUMPDEST SWAP6 POP PUSH1 0x4 DUP5 PUSH1 0xFF AND SWAP1 SHR PUSH2 0x2ABB JUMP JUMPDEST PUSH2 0x1CEA PUSH8 0x6F201C13711C0B01 PUSH1 0xC0 SHL PUSH2 0x26EA JUMP JUMPDEST PUSH2 0x1CFE PUSH8 0xDC0CB5BC937ABD78 PUSH1 0xC0 SHL PUSH2 0x26EA JUMP JUMPDEST PUSH2 0x1D18 DUP6 DUP5 DUP1 PUSH2 0x1D0D SWAP1 PUSH2 0x349A JUMP JUMPDEST SWAP6 POP PUSH1 0xF DUP5 AND PUSH2 0x2ABB JUMP JUMPDEST POP DUP1 DUP1 PUSH2 0x1D24 SWAP1 PUSH2 0x349A JUMP JUMPDEST SWAP2 POP POP PUSH2 0x1C3E JUMP JUMPDEST POP PUSH2 0x1D41 PUSH8 0xB55456FCF6151CFC PUSH1 0xC0 SHL PUSH2 0x26EA JUMP JUMPDEST PUSH1 0x2 DUP1 PUSH1 0x14 PUSH2 0x1D50 SWAP2 SWAP1 PUSH2 0x3332 JUMP JUMPDEST PUSH2 0x1D5A SWAP2 SWAP1 PUSH2 0x335A JUMP JUMPDEST PUSH1 0xFF AND PUSH8 0xFFFFFFFFFFFFFFFF DUP2 GT ISZERO PUSH2 0x1D76 JUMPI PUSH2 0x1D75 PUSH2 0x2C44 JUMP JUMPDEST JUMPDEST PUSH1 0x40 MLOAD SWAP1 DUP1 DUP3 MSTORE DUP1 PUSH1 0x1F ADD PUSH1 0x1F NOT AND PUSH1 0x20 ADD DUP3 ADD PUSH1 0x40 MSTORE DUP1 ISZERO PUSH2 0x1DA8 JUMPI DUP2 PUSH1 0x20 ADD PUSH1 0x1 DUP3 MUL DUP1 CALLDATASIZE DUP4 CALLDATACOPY DUP1 DUP3 ADD SWAP2 POP POP SWAP1 POP JUMPDEST POP SWAP4 POP PUSH2 0x1DBF PUSH8 0xC32F0DFF8F82C024 PUSH1 0xC0 SHL PUSH2 0x26EA JUMP JUMPDEST PUSH32 0x3000000000000000000000000000000000000000000000000000000000000000 DUP5 PUSH1 0x0 DUP2 MLOAD DUP2 LT PUSH2 0x1DF4 JUMPI PUSH2 0x1DF3 PUSH2 0x3484 JUMP JUMPDEST JUMPDEST PUSH1 0x20 ADD ADD SWAP1 PUSH31 0xFFFFFFFFFFFFFFFFFFFFFFFFFFFFFFFFFFFFFFFFFFFFFFFFFFFFFFFFFFFFFF NOT AND SWAP1 DUP2 PUSH1 0x0 BYTE SWAP1 MSTORE8 POP PUSH2 0x1E37 PUSH8 0x9D006E8D554D6F4F PUSH1 0xC0 SHL PUSH2 0x26EA JUMP JUMPDEST PUSH32 0x7800000000000000000000000000000000000000000000000000000000000000 DUP5 PUSH1 0x1 DUP2 MLOAD DUP2 LT PUSH2 0x1E6C JUMPI PUSH2 0x1E6B PUSH2 0x3484 JUMP JUMPDEST JUMPDEST PUSH1 0x20 ADD ADD SWAP1 PUSH31 0xFFFFFFFFFFFFFFFFFFFFFFFFFFFFFFFFFFFFFFFFFFFFFFFFFFFFFFFFFFFFFF NOT AND SWAP1 DUP2 PUSH1 0x0 BYTE SWAP1 MSTORE8 POP PUSH2 0x1EAF PUSH8 0xD4D6F75901F26187 PUSH1 0xC0 SHL PUSH2 0x26EA JUMP JUMPDEST PUSH2 0x1EC3 PUSH8 0xD4AB506EAFD4A665 PUSH1 0xC0 SHL PUSH2 0x26EA JUMP JUMPDEST PUSH1 0x0 JUMPDEST PUSH1 0x2 PUSH1 0x14 PUSH2 0x1ED4 SWAP2 SWAP1 PUSH2 0x3332 JUMP JUMPDEST PUSH1 0xFF AND DUP2 LT ISZERO PUSH2 0x1F71 JUMPI PUSH2 0x1EF2 PUSH8 0x5AFF96ACD50353E7 PUSH1 0xC0 SHL PUSH2 0x26EA JUMP JUMPDEST DUP4 DUP2 DUP2 MLOAD DUP2 LT PUSH2 0x1F05 JUMPI PUSH2 0x1F04 PUSH2 0x3484 JUMP JUMPDEST JUMPDEST PUSH1 0x20 ADD ADD MLOAD PUSH1 0xF8 SHR PUSH1 0xF8 SHL DUP6 PUSH1 0x2 DUP4 PUSH2 0x1F1E SWAP2 SWAP1 PUSH2 0x34B8 JUMP JUMPDEST DUP2 MLOAD DUP2 LT PUSH2 0x1F2F JUMPI PUSH2 0x1F2E PUSH2 0x3484 JUMP JUMPDEST JUMPDEST PUSH1 0x20 ADD ADD SWAP1 PUSH31 0xFFFFFFFFFFFFFFFFFFFFFFFFFFFFFFFFFFFFFFFFFFFFFFFFFFFFFFFFFFFFFF NOT AND SWAP1 DUP2 PUSH1 0x0 BYTE SWAP1 MSTORE8 POP DUP1 DUP1 PUSH2 0x1F69 SWAP1 PUSH2 0x349A JUMP JUMPDEST SWAP2 POP POP PUSH2 0x1EC6 JUMP JUMPDEST POP PUSH2 0x1F86 PUSH8 0xCA78144763705C82 PUSH1 0xC0 SHL PUSH2 0x26EA JUMP JUMPDEST PUSH2 0x1F9A PUSH8 0x40EEA7D6E857BFA0 PUSH1 0xC0 SHL PUSH2 0x26EA JUMP JUMPDEST POP POP POP SWAP2 SWAP1 POP JUMP JUMPDEST PUSH1 0x0 PUSH2 0x1FB8 PUSH8 0xDB27E761F3C4634D PUSH1 0xC0 SHL PUSH2 0x26EA JUMP JUMPDEST PUSH2 0x1FCC PUSH8 0xEEAF3C4A15E93CC8 PUSH1 0xC0 SHL PUSH2 0x26EA JUMP JUMPDEST PUSH2 0x1FE0 PUSH8 0x81D5819A54A9DBAD PUSH1 0xC0 SHL PUSH2 0x26EA JUMP JUMPDEST PUSH1 0x0 SLOAD SWAP1 POP SWAP1 JUMP JUMPDEST PUSH1 0x5 SLOAD DUP2 JUMP JUMPDEST PUSH1 0x0 SLOAD DUP2 JUMP JUMPDEST PUSH1 0x0 PUSH2 0x200A PUSH8 0xB7DC5D659D4CE089 PUSH1 0xC0 SHL PUSH2 0x26EA JUMP JUMPDEST PUSH2 0x201E PUSH8 0x6BC916D325211995 PUSH1 0xC0 SHL PUSH2 0x26EA JUMP JUMPDEST PUSH2 0x2032 PUSH8 0x47FEFBB0151003BC PUSH1 0xC0 SHL PUSH2 0x26EA JUMP JUMPDEST PUSH1 0x3 PUSH1 0x2 PUSH1 0x0 PUSH1 0x1 DUP6 PUSH1 0x0 SHR AND EQ PUSH2 0x204B JUMPI PUSH1 0x3 PUSH2 0x204E JUMP JUMPDEST PUSH1 0x2 JUMPDEST DUP6 PUSH1 0x40 MLOAD PUSH1 0x20 ADD PUSH2 0x2060 SWAP3 SWAP2 SWAP1 PUSH2 0x34D6 JUMP JUMPDEST PUSH1 0x40 MLOAD PUSH1 0x20 DUP2 DUP4 SUB SUB DUP2 MSTORE SWAP1 PUSH1 0x40 MSTORE PUSH1 0x40 MLOAD PUSH2 0x207C SWAP2 SWAP1 PUSH2 0x32BE JUMP JUMPDEST PUSH1 0x20 PUSH1 0x40 MLOAD DUP1 DUP4 SUB DUP2 DUP6 GAS STATICCALL ISZERO DUP1 ISZERO PUSH2 0x2099 JUMPI RETURNDATASIZE PUSH1 0x0 DUP1 RETURNDATACOPY RETURNDATASIZE PUSH1 0x0 REVERT JUMPDEST POP POP POP PUSH1 0x40 MLOAD RETURNDATASIZE PUSH1 0x1F NOT PUSH1 0x1F DUP3 ADD AND DUP3 ADD DUP1 PUSH1 0x40 MSTORE POP DUP2 ADD SWAP1 PUSH2 0x20BC SWAP2 SWAP1 PUSH2 0x32DC JUMP JUMPDEST PUSH1 0x40 MLOAD PUSH1 0x20 ADD PUSH2 0x20CC SWAP2 SWAP1 PUSH2 0x32F8 JUMP JUMPDEST PUSH1 0x40 MLOAD PUSH1 0x20 DUP2 DUP4 SUB SUB DUP2 MSTORE SWAP1 PUSH1 0x40 MSTORE PUSH1 0x40 MLOAD PUSH2 0x20E8 SWAP2 SWAP1 PUSH2 0x32BE JUMP JUMPDEST PUSH1 0x20 PUSH1 0x40 MLOAD DUP1 DUP4 SUB DUP2 DUP6 GAS STATICCALL ISZERO DUP1 ISZERO PUSH2 0x2105 JUMPI RETURNDATASIZE PUSH1 0x0 DUP1 RETURNDATACOPY RETURNDATASIZE PUSH1 0x0 REVERT JUMPDEST POP POP POP PUSH1 0x40 MLOAD MLOAD PUSH1 0x60 SHL SWAP1 POP SWAP3 SWAP2 POP POP JUMP JUMPDEST PUSH2 0x212B PUSH8 0xB9DCEAEBDE088C57 PUSH1 0xC0 SHL PUSH2 0x26EA JUMP JUMPDEST PUSH2 0x213F PUSH8 0x98BE35E9C7936777 PUSH1 0xC0 SHL PUSH2 0x26EA JUMP JUMPDEST PUSH2 0x2153 PUSH8 0xEFF1A2344EDB1CD1 PUSH1 0xC0 SHL PUSH2 0x26EA JUMP JUMPDEST CALLVALUE SELFBALANCE EQ PUSH2 0x21A0 JUMPI PUSH2 0x216E PUSH8 0x4660C1C3493A1684 PUSH1 0xC0 SHL PUSH2 0x26EA JUMP JUMPDEST PUSH1 0x40 MLOAD PUSH32 0xE538555100000000000000000000000000000000000000000000000000000000 DUP2 MSTORE PUSH1 0x4 ADD PUSH1 0x40 MLOAD DUP1 SWAP2 SUB SWAP1 REVERT JUMPDEST PUSH2 0x21B4 PUSH8 0x8B065B8DC5752F15 PUSH1 0xC0 SHL PUSH2 0x26EA JUMP JUMPDEST PUSH2 0x21C8 PUSH8 0x11C84EB5F2A5C9F PUSH1 0xC0 SHL PUSH2 0x26EA JUMP JUMPDEST PUSH2 0x21DC PUSH8 0xD272C90322192713 PUSH1 0xC0 SHL PUSH2 0x26EA JUMP JUMPDEST PUSH1 0x0 CALLVALUE SUB PUSH2 0x222A JUMPI PUSH2 0x21F8 PUSH8 0x1DDB7D3EBE835E7C PUSH1 0xC0 SHL PUSH2 0x26EA JUMP JUMPDEST PUSH1 0x40 MLOAD PUSH32 0xD3A34E3B00000000000000000000000000000000000000000000000000000000 DUP2 MSTORE PUSH1 0x4 ADD PUSH1 0x40 MLOAD DUP1 SWAP2 SUB SWAP1 REVERT JUMPDEST PUSH2 0x223E PUSH8 0x140992624A7EE19 PUSH1 0xC0 SHL PUSH2 0x26EA JUMP JUMPDEST PUSH2 0x2252 PUSH8 0xD5ED02E795F33CE1 PUSH1 0xC0 SHL PUSH2 0x26EA JUMP JUMPDEST PUSH2 0x2266 PUSH8 0x739DE5E2E823E087 PUSH1 0xC0 SHL PUSH2 0x26EA JUMP JUMPDEST DUP1 MLOAD DUP3 MLOAD EQ PUSH2 0x22B5 JUMPI PUSH2 0x2283 PUSH8 0x66F63DDCE4D1B428 PUSH1 0xC0 SHL PUSH2 0x26EA JUMP JUMPDEST PUSH1 0x40 MLOAD PUSH32 0xF4DBFB5A00000000000000000000000000000000000000000000000000000000 DUP2 MSTORE PUSH1 0x4 ADD PUSH1 0x40 MLOAD DUP1 SWAP2 SUB SWAP1 REVERT JUMPDEST PUSH2 0x22C9 PUSH8 0xA71DCEA3A722249B PUSH1 0xC0 SHL PUSH2 0x26EA JUMP JUMPDEST PUSH2 0x22DD PUSH8 0x294941688F92295A PUSH1 0xC0 SHL PUSH2 0x26EA JUMP JUMPDEST PUSH2 0x22F1 PUSH8 0x1D54F8853F8B70D6 PUSH1 0xC0 SHL PUSH2 0x26EA JUMP JUMPDEST PUSH1 0x0 PUSH2 0x2307 PUSH8 0xE7A168564736FB89 PUSH1 0xC0 SHL PUSH2 0x26EA JUMP JUMPDEST PUSH2 0x231B PUSH8 0x6BCBB5A8A416BF84 PUSH1 0xC0 SHL PUSH2 0x26EA JUMP JUMPDEST PUSH1 0x0 JUMPDEST DUP4 MLOAD DUP2 LT ISZERO PUSH2 0x2630 JUMPI PUSH2 0x233B PUSH8 0x6CBA9898EEAA2975 PUSH1 0xC0 SHL PUSH2 0x26EA JUMP JUMPDEST PUSH2 0x234F PUSH8 0x282A1D059A6C5A98 PUSH1 0xC0 SHL PUSH2 0x26EA JUMP JUMPDEST PUSH1 0x0 PUSH1 0x60 SHL PUSH12 0xFFFFFFFFFFFFFFFFFFFFFFFF NOT AND DUP5 DUP3 DUP2 MLOAD DUP2 LT PUSH2 0x2376 JUMPI PUSH2 0x2375 PUSH2 0x3484 JUMP JUMPDEST JUMPDEST PUSH1 0x20 MUL PUSH1 0x20 ADD ADD MLOAD PUSH12 0xFFFFFFFFFFFFFFFFFFFFFFFF NOT AND SUB PUSH2 0x23D8 JUMPI PUSH2 0x23A6 PUSH8 0x13DABCA1678DEFDC PUSH1 0xC0 SHL PUSH2 0x26EA JUMP JUMPDEST PUSH1 0x40 MLOAD PUSH32 0x1C5FC20800000000000000000000000000000000000000000000000000000000 DUP2 MSTORE PUSH1 0x4 ADD PUSH1 0x40 MLOAD DUP1 SWAP2 SUB SWAP1 REVERT JUMPDEST PUSH2 0x23EC PUSH8 0x1E266256D729F2C9 PUSH1 0xC0 SHL PUSH2 0x26EA JUMP JUMPDEST PUSH2 0x2400 PUSH8 0x21985FFADF9D7E42 PUSH1 0xC0 SHL PUSH2 0x26EA JUMP JUMPDEST PUSH2 0x2414 PUSH8 0xFF9F2EA816A80879 PUSH1 0xC0 SHL PUSH2 0x26EA JUMP JUMPDEST PUSH1 0x0 DUP4 DUP3 DUP2 MLOAD DUP2 LT PUSH2 0x2429 JUMPI PUSH2 0x2428 PUSH2 0x3484 JUMP JUMPDEST JUMPDEST PUSH1 0x20 MUL PUSH1 0x20 ADD ADD MLOAD SUB PUSH2 0x247C JUMPI PUSH2 0x244A PUSH8 0xD863C193A784BFEA PUSH1 0xC0 SHL PUSH2 0x26EA JUMP JUMPDEST PUSH1 0x40 MLOAD PUSH32 0x34B4782100000000000000000000000000000000000000000000000000000000 DUP2 MSTORE PUSH1 0x4 ADD PUSH1 0x40 MLOAD DUP1 SWAP2 SUB SWAP1 REVERT JUMPDEST PUSH2 0x2490 PUSH8 0x3C7F8D77ADEA7D24 PUSH1 0xC0 SHL PUSH2 0x26EA JUMP JUMPDEST PUSH2 0x24A4 PUSH8 0xB7C7E172FD1AC28D PUSH1 0xC0 SHL PUSH2 0x26EA JUMP JUMPDEST PUSH2 0x24B8 PUSH8 0xAB381424CA47E12 PUSH1 0xC0 SHL PUSH2 0x26EA JUMP JUMPDEST PUSH1 0x0 PUSH1 0x3 PUSH1 0x0 DUP7 DUP5 DUP2 MLOAD DUP2 LT PUSH2 0x24D1 JUMPI PUSH2 0x24D0 PUSH2 0x3484 JUMP JUMPDEST JUMPDEST PUSH1 0x20 MUL PUSH1 0x20 ADD ADD MLOAD PUSH12 0xFFFFFFFFFFFFFFFFFFFFFFFF NOT AND PUSH12 0xFFFFFFFFFFFFFFFFFFFFFFFF NOT AND DUP2 MSTORE PUSH1 0x20 ADD SWAP1 DUP2 MSTORE PUSH1 0x20 ADD PUSH1 0x0 KECCAK256 SLOAD EQ PUSH2 0x2551 JUMPI PUSH2 0x251F PUSH8 0xA97620AD4BC4A17 PUSH1 0xC0 SHL PUSH2 0x26EA JUMP JUMPDEST PUSH1 0x40 MLOAD PUSH32 0xB52E685100000000000000000000000000000000000000000000000000000000 DUP2 MSTORE PUSH1 0x4 ADD PUSH1 0x40 MLOAD DUP1 SWAP2 SUB SWAP1 REVERT JUMPDEST PUSH2 0x2565 PUSH8 0x3A424A27C7D76853 PUSH1 0xC0 SHL PUSH2 0x26EA JUMP JUMPDEST PUSH2 0x2579 PUSH8 0x6B138FBAFC334720 PUSH1 0xC0 SHL PUSH2 0x26EA JUMP JUMPDEST DUP3 DUP2 DUP2 MLOAD DUP2 LT PUSH2 0x258C JUMPI PUSH2 0x258B PUSH2 0x3484 JUMP JUMPDEST JUMPDEST PUSH1 0x20 MUL PUSH1 0x20 ADD ADD MLOAD DUP3 PUSH2 0x259F SWAP2 SWAP1 PUSH2 0x34B8 JUMP JUMPDEST SWAP2 POP PUSH2 0x25B5 PUSH8 0x2BA85B6F673B9905 PUSH1 0xC0 SHL PUSH2 0x26EA JUMP JUMPDEST DUP3 DUP2 DUP2 MLOAD DUP2 LT PUSH2 0x25C8 JUMPI PUSH2 0x25C7 PUSH2 0x3484 JUMP JUMPDEST JUMPDEST PUSH1 0x20 MUL PUSH1 0x20 ADD ADD MLOAD PUSH1 0x3 PUSH1 0x0 DUP7 DUP5 DUP2 MLOAD DUP2 LT PUSH2 0x25E7 JUMPI PUSH2 0x25E6 PUSH2 0x3484 JUMP JUMPDEST JUMPDEST PUSH1 0x20 MUL PUSH1 0x20 ADD ADD MLOAD PUSH12 0xFFFFFFFFFFFFFFFFFFFFFFFF NOT AND PUSH12 0xFFFFFFFFFFFFFFFFFFFFFFFF NOT AND DUP2 MSTORE PUSH1 0x20 ADD SWAP1 DUP2 MSTORE PUSH1 0x20 ADD PUSH1 0x0 KECCAK256 DUP2 SWAP1 SSTORE POP DUP1 PUSH2 0x2629 SWAP1 PUSH2 0x349A JUMP JUMPDEST SWAP1 POP PUSH2 0x231E JUMP JUMPDEST POP PUSH2 0x2645 PUSH8 0x5750AF3BA3A0E2C1 PUSH1 0xC0 SHL PUSH2 0x26EA JUMP JUMPDEST PUSH2 0x2659 PUSH8 0xD523C5AFC0C004F0 PUSH1 0xC0 SHL PUSH2 0x26EA JUMP JUMPDEST DUP1 CALLVALUE EQ PUSH2 0x26A6 JUMPI PUSH2 0x2674 PUSH8 0x92F4D4809F301434 PUSH1 0xC0 SHL PUSH2 0x26EA JUMP JUMPDEST PUSH1 0x40 MLOAD PUSH32 0x970D408900000000000000000000000000000000000000000000000000000000 DUP2 MSTORE PUSH1 0x4 ADD PUSH1 0x40 MLOAD DUP1 SWAP2 SUB SWAP1 REVERT JUMPDEST PUSH2 0x26BA PUSH8 0xE327C2B2B16182A6 PUSH1 0xC0 SHL PUSH2 0x26EA JUMP JUMPDEST POP POP POP JUMP JUMPDEST PUSH1 0x3 PUSH1 0x20 MSTORE DUP1 PUSH1 0x0 MSTORE PUSH1 0x40 PUSH1 0x0 KECCAK256 PUSH1 0x0 SWAP2 POP SWAP1 POP SLOAD DUP2 JUMP JUMPDEST PUSH1 0x4 PUSH1 0x2 SWAP1 SLOAD SWAP1 PUSH2 0x100 EXP SWAP1 DIV PUSH1 0xFF AND DUP2 JUMP JUMPDEST POP JUMP JUMPDEST PUSH2 0x2701 PUSH8 0x56ED8BF5AAF547C2 PUSH1 0xC0 SHL PUSH2 0x26EA JUMP JUMPDEST PUSH2 0x2715 PUSH8 0x4AB6F96D5141DC28 PUSH1 0xC0 SHL PUSH2 0x26EA JUMP JUMPDEST PUSH2 0x2729 PUSH8 0xB9A8D196C270DCAB PUSH1 0xC0 SHL PUSH2 0x26EA JUMP JUMPDEST PUSH1 0x0 PUSH1 0x2 DUP3 PUSH2 0x2738 SWAP2 SWAP1 PUSH2 0x31F4 JUMP JUMPDEST SWAP1 POP PUSH2 0x274E PUSH8 0x220C8E04DA3F6E1 PUSH1 0xC0 SHL PUSH2 0x26EA JUMP JUMPDEST PUSH2 0x2762 PUSH8 0xA901718F94FD4589 PUSH1 0xC0 SHL PUSH2 0x26EA JUMP JUMPDEST PUSH1 0x0 DUP2 DUP4 PUSH2 0x2770 SWAP2 SWAP1 PUSH2 0x34F7 JUMP JUMPDEST SWAP1 POP PUSH2 0x2786 PUSH8 0x566537D7DF71BDB7 PUSH1 0xC0 SHL PUSH2 0x26EA JUMP JUMPDEST PUSH2 0x279A PUSH8 0x2FFF336406DA6115 PUSH1 0xC0 SHL PUSH2 0x26EA JUMP JUMPDEST PUSH1 0x6 PUSH1 0x0 SWAP1 SLOAD SWAP1 PUSH2 0x100 EXP SWAP1 DIV PUSH20 0xFFFFFFFFFFFFFFFFFFFFFFFFFFFFFFFFFFFFFFFF AND PUSH20 0xFFFFFFFFFFFFFFFFFFFFFFFFFFFFFFFFFFFFFFFF AND PUSH2 0x8FC DUP4 SWAP1 DUP2 ISZERO MUL SWAP1 PUSH1 0x40 MLOAD PUSH1 0x0 PUSH1 0x40 MLOAD DUP1 DUP4 SUB DUP2 DUP6 DUP9 DUP9 CALL SWAP4 POP POP POP POP ISZERO DUP1 ISZERO PUSH2 0x2802 JUMPI RETURNDATASIZE PUSH1 0x0 DUP1 RETURNDATACOPY RETURNDATASIZE PUSH1 0x0 REVERT JUMPDEST POP PUSH2 0x2817 PUSH8 0x3F3A6CF474E571BE PUSH1 0xC0 SHL PUSH2 0x26EA JUMP JUMPDEST PUSH2 0x282B PUSH8 0xE604662F374527C9 PUSH1 0xC0 SHL PUSH2 0x26EA JUMP JUMPDEST PUSH1 0x7 PUSH1 0x0 SWAP1 SLOAD SWAP1 PUSH2 0x100 EXP SWAP1 DIV PUSH20 0xFFFFFFFFFFFFFFFFFFFFFFFFFFFFFFFFFFFFFFFF AND PUSH20 0xFFFFFFFFFFFFFFFFFFFFFFFFFFFFFFFFFFFFFFFF AND PUSH2 0x8FC DUP3 SWAP1 DUP2 ISZERO MUL SWAP1 PUSH1 0x40 MLOAD PUSH1 0x0 PUSH1 0x40 MLOAD DUP1 DUP4 SUB DUP2 DUP6 DUP9 DUP9 CALL SWAP4 POP POP POP POP ISZERO DUP1 ISZERO PUSH2 0x2893 JUMPI RETURNDATASIZE PUSH1 0x0 DUP1 RETURNDATACOPY RETURNDATASIZE PUSH1 0x0 REVERT JUMPDEST POP POP POP POP JUMP JUMPDEST PUSH1 0x0 PUSH1 0x1 SWAP1 POP SWAP2 SWAP1 POP JUMP JUMPDEST PUSH2 0x28B8 PUSH8 0xAD2AED6A16111CF5 PUSH1 0xC0 SHL PUSH2 0x26EA JUMP JUMPDEST PUSH2 0x28CC PUSH8 0x3EB796F5A27F338A PUSH1 0xC0 SHL PUSH2 0x26EA JUMP JUMPDEST PUSH2 0x28E0 PUSH8 0xD1665D9526F19E69 PUSH1 0xC0 SHL PUSH2 0x26EA JUMP JUMPDEST PUSH1 0x0 DUP3 SWAP1 POP PUSH2 0x28F9 PUSH8 0x4866B772E750CAA6 PUSH1 0xC0 SHL PUSH2 0x26EA JUMP JUMPDEST PUSH2 0x290D PUSH8 0x16C93D315E4C19B4 PUSH1 0xC0 SHL PUSH2 0x26EA JUMP JUMPDEST PUSH1 0x0 JUMPDEST DUP3 DUP2 LT ISZERO PUSH2 0x2AB3 JUMPI PUSH2 0x292C PUSH8 0xD60A6BB802777F86 PUSH1 0xC0 SHL PUSH2 0x26EA JUMP JUMPDEST PUSH2 0x293F PUSH7 0x9B2CB661A4E364 PUSH1 0xC0 SHL PUSH2 0x26EA JUMP JUMPDEST PUSH1 0x0 DUP6 DUP3 PUSH1 0x20 DUP2 LT PUSH2 0x2954 JUMPI PUSH2 0x2953 PUSH2 0x3484 JUMP JUMPDEST JUMPDEST BYTE PUSH1 0xF8 SHL PUSH1 0xF8 SHR SWAP1 POP PUSH2 0x2971 PUSH8 0xD5B1E92C6552DB74 PUSH1 0xC0 SHL PUSH2 0x26EA JUMP JUMPDEST PUSH32 0x3031323334353637383961626364656600000000000000000000000000000000 PUSH1 0x4 DUP3 PUSH1 0xFF AND SWAP1 SHR PUSH1 0xFF AND PUSH1 0x10 DUP2 LT PUSH2 0x29AE JUMPI PUSH2 0x29AD PUSH2 0x3484 JUMP JUMPDEST JUMPDEST BYTE PUSH1 0xF8 SHL DUP8 DUP5 DUP1 PUSH2 0x29BE SWAP1 PUSH2 0x349A JUMP JUMPDEST SWAP6 POP DUP2 MLOAD DUP2 LT PUSH2 0x29D1 JUMPI PUSH2 0x29D0 PUSH2 0x3484 JUMP JUMPDEST JUMPDEST PUSH1 0x20 ADD ADD SWAP1 PUSH31 0xFFFFFFFFFFFFFFFFFFFFFFFFFFFFFFFFFFFFFFFFFFFFFFFFFFFFFFFFFFFFFF NOT AND SWAP1 DUP2 PUSH1 0x0 BYTE SWAP1 MSTORE8 POP PUSH2 0x2A14 PUSH8 0x19DF0ED554E041E5 PUSH1 0xC0 SHL PUSH2 0x26EA JUMP JUMPDEST PUSH32 0x3031323334353637383961626364656600000000000000000000000000000000 PUSH1 0xF DUP3 AND PUSH1 0xFF AND PUSH1 0x10 DUP2 LT PUSH2 0x2A4D JUMPI PUSH2 0x2A4C PUSH2 0x3484 JUMP JUMPDEST JUMPDEST BYTE PUSH1 0xF8 SHL DUP8 DUP5 DUP1 PUSH2 0x2A5D SWAP1 PUSH2 0x349A JUMP JUMPDEST SWAP6 POP DUP2 MLOAD DUP2 LT PUSH2 0x2A70 JUMPI PUSH2 0x2A6F PUSH2 0x3484 JUMP JUMPDEST JUMPDEST PUSH1 0x20 ADD ADD SWAP1 PUSH31 0xFFFFFFFFFFFFFFFFFFFFFFFFFFFFFFFFFFFFFFFFFFFFFFFFFFFFFFFFFFFFFF NOT AND SWAP1 DUP2 PUSH1 0x0 BYTE SWAP1 MSTORE8 POP POP DUP1 DUP1 PUSH2 0x2AAB SWAP1 PUSH2 0x349A JUMP JUMPDEST SWAP2 POP POP PUSH2 0x2910 JUMP JUMPDEST POP POP POP POP POP POP JUMP JUMPDEST PUSH2 0x2ACF PUSH8 0xA135274DB437CEA PUSH1 0xC0 SHL PUSH2 0x26EA JUMP JUMPDEST PUSH2 0x2AE3 PUSH8 0xE30985313975AA03 PUSH1 0xC0 SHL PUSH2 0x26EA JUMP JUMPDEST PUSH2 0x2AF7 PUSH8 0x3EAE86FAC74F2F91 PUSH1 0xC0 SHL PUSH2 0x26EA JUMP JUMPDEST PUSH1 0x0 DUP4 DUP4 DUP2 MLOAD DUP2 LT PUSH2 0x2B0C JUMPI PUSH2 0x2B0B PUSH2 0x3484 JUMP JUMPDEST JUMPDEST PUSH1 0x20 ADD ADD MLOAD PUSH1 0xF8 SHR PUSH1 0xF8 SHL SWAP1 POP PUSH2 0x2B2D PUSH8 0x4C173B750631D66A PUSH1 0xC0 SHL PUSH2 0x26EA JUMP JUMPDEST PUSH2 0x2B41 PUSH8 0xC6A5810034D10A2F PUSH1 0xC0 SHL PUSH2 0x26EA JUMP JUMPDEST PUSH32 0x6100000000000000000000000000000000000000000000000000000000000000 DUP2 PUSH31 0xFFFFFFFFFFFFFFFFFFFFFFFFFFFFFFFFFFFFFFFFFFFFFFFFFFFFFFFFFFFFFF NOT AND LT ISZERO DUP1 ISZERO PUSH2 0x2B97 JUMPI POP PUSH1 0x8 DUP3 PUSH1 0xFF AND LT ISZERO JUMPDEST ISZERO PUSH2 0x2C12 JUMPI PUSH2 0x2BB0 PUSH8 0xDF9512511E153C31 PUSH1 0xC0 SHL PUSH2 0x26EA JUMP JUMPDEST PUSH2 0x2BC4 PUSH8 0xD3BE6FE18C39B1F1 PUSH1 0xC0 SHL PUSH2 0x26EA JUMP JUMPDEST PUSH1 0x20 PUSH1 0xF8 SHL DUP2 XOR DUP5 DUP5 DUP2 MLOAD DUP2 LT PUSH2 0x2BDE JUMPI PUSH2 0x2BDD PUSH2 0x3484 JUMP JUMPDEST JUMPDEST PUSH1 0x20 ADD ADD SWAP1 PUSH31 0xFFFFFFFFFFFFFFFFFFFFFFFFFFFFFFFFFFFFFFFFFFFFFFFFFFFFFFFFFFFFFF NOT AND SWAP1 DUP2 PUSH1 0x0 BYTE SWAP1 MSTORE8 POP PUSH2 0x2C27 JUMP JUMPDEST PUSH2 0x2C26 PUSH8 0x3C53594D72F03D7D PUSH1 0xC0 SHL PUSH2 0x26EA JUMP JUMPDEST JUMPDEST POP POP POP POP JUMP JUMPDEST PUSH1 0x1 DUP1 PUSH1 0xA0 SHL SUB DUP2 AND DUP2 EQ PUSH2 0x2C41 JUMPI PUSH1 0x0 DUP1 REVERT JUMPDEST POP JUMP JUMPDEST PUSH4 0x4E487B71 PUSH1 0xE0 SHL PUSH1 0x0 MSTORE PUSH1 0x41 PUSH1 0x4 MSTORE PUSH1 0x24 PUSH1 0x0 REVERT JUMPDEST PUSH1 0x0 PUSH1 0x40 MLOAD SWAP1 POP PUSH1 0x1F NOT PUSH1 0x1F DUP4 ADD AND DUP2 ADD DUP2 DUP2 LT PUSH8 0xFFFFFFFFFFFFFFFF DUP3 GT OR ISZERO PUSH2 0x2C88 JUMPI PUSH2 0x2C87 PUSH2 0x2C44 JUMP JUMPDEST JUMPDEST DUP1 PUSH1 0x40 MSTORE POP SWAP2 SWAP1 POP JUMP JUMPDEST PUSH1 0x0 DUP3 PUSH1 0x1F DUP4 ADD SLT PUSH2 0x2CA3 JUMPI PUSH1 0x0 DUP1 REVERT JUMPDEST DUP2 CALLDATALOAD PUSH8 0xFFFFFFFFFFFFFFFF DUP2 GT ISZERO PUSH2 0x2CBE JUMPI PUSH2 0x2CBD PUSH2 0x2C44 JUMP JUMPDEST JUMPDEST PUSH2 0x2CD1 PUSH1 0x20 PUSH1 0x1F NOT PUSH1 0x1F DUP5 ADD AND ADD PUSH2 0x2C5A JUMP JUMPDEST DUP2 DUP2 MSTORE DUP5 PUSH1 0x20 DUP4 DUP7 ADD ADD GT ISZERO PUSH2 0x2CE6 JUMPI PUSH1 0x0 DUP1 REVERT JUMPDEST DUP2 PUSH1 0x20 DUP6 ADD PUSH1 0x20 DUP4 ADD CALLDATACOPY PUSH1 0x0 PUSH1 0x20 DUP4 DUP4 ADD ADD MSTORE DUP1 SWAP3 POP POP POP SWAP3 SWAP2 POP POP JUMP JUMPDEST PUSH1 0x0 DUP2 CALLDATALOAD SWAP1 POP PUSH1 0xFF DUP2 AND DUP2 EQ PUSH2 0x2D19 JUMPI PUSH1 0x0 DUP1 REVERT JUMPDEST SWAP2 SWAP1 POP JUMP JUMPDEST PUSH1 0x0 DUP1 PUSH1 0x0 DUP1 PUSH1 0x0 DUP1 PUSH1 0x0 PUSH1 0xE0 DUP9 DUP11 SUB SLT ISZERO PUSH2 0x2D39 JUMPI PUSH1 0x0 DUP1 REVERT JUMPDEST DUP8 CALLDATALOAD PUSH2 0x2D44 DUP2 PUSH2 0x2C2D JUMP JUMPDEST DUP1 SWAP8 POP POP PUSH1 0x20 DUP9 ADD CALLDATALOAD PUSH8 0xFFFFFFFFFFFFFFFF DUP2 GT ISZERO PUSH2 0x2D62 JUMPI PUSH1 0x0 DUP1 REVERT JUMPDEST PUSH2 0x2D6E DUP11 DUP3 DUP12 ADD PUSH2 0x2C92 JUMP JUMPDEST SWAP7 POP POP PUSH1 0x40 DUP9 ADD CALLDATALOAD SWAP5 POP PUSH1 0x60 DUP9 ADD CALLDATALOAD SWAP4 POP PUSH2 0x2D8B PUSH1 0x80 DUP10 ADD PUSH2 0x2D04 JUMP JUMPDEST SWAP3 POP PUSH1 0xA0 DUP9 ADD CALLDATALOAD SWAP2 POP PUSH1 0xC0 DUP9 ADD CALLDATALOAD SWAP1 POP SWAP3 SWAP6 SWAP9 SWAP2 SWAP5 SWAP8 POP SWAP3 SWAP6 POP JUMP JUMPDEST PUSH1 0x0 PUSH1 0x20 DUP3 ADD SWAP1 POP PUSH1 0x1 DUP1 PUSH1 0xA0 SHL SUB DUP4 AND DUP3 MSTORE SWAP3 SWAP2 POP POP JUMP JUMPDEST PUSH1 0x0 PUSH1 0x20 DUP3 ADD SWAP1 POP DUP3 ISZERO ISZERO DUP3 MSTORE SWAP3 SWAP2 POP POP JUMP JUMPDEST PUSH1 0x0 PUSH1 0x40 DUP3 ADD SWAP1 POP DUP4 DUP3 MSTORE DUP3 PUSH1 0x20 DUP4 ADD MSTORE SWAP4 SWAP3 POP POP POP JUMP JUMPDEST PUSH1 0x0 DUP1 PUSH1 0x40 DUP4 DUP6 SUB SLT ISZERO PUSH2 0x2DFE JUMPI PUSH1 0x0 DUP1 REVERT JUMPDEST DUP3 CALLDATALOAD SWAP2 POP PUSH1 0x20 DUP4 ADD CALLDATALOAD SWAP1 POP SWAP3 POP SWAP3 SWAP1 POP JUMP JUMPDEST PUSH1 0x0 PUSH1 0x20 DUP3 ADD SWAP1 POP PUSH1 0x1 DUP1 PUSH1 0xA0 SHL SUB DUP4 AND DUP3 MSTORE SWAP3 SWAP2 POP POP JUMP JUMPDEST PUSH1 0x0 PUSH1 0x20 DUP3 ADD SWAP1 POP DUP3 DUP3 MSTORE SWAP3 SWAP2 POP POP JUMP JUMPDEST PUSH1 0x0 DUP1 PUSH1 0x40 DUP4 DUP6 SUB SLT ISZERO PUSH2 0x2E4D JUMPI PUSH1 0x0 DUP1 REVERT JUMPDEST DUP3 CALLDATALOAD PUSH2 0x2E58 DUP2 PUSH2 0x2C2D JUMP JUMPDEST DUP1 SWAP3 POP POP PUSH1 0x20 DUP4 ADD CALLDATALOAD PUSH8 0xFFFFFFFFFFFFFFFF DUP2 GT ISZERO PUSH2 0x2E76 JUMPI PUSH1 0x0 DUP1 REVERT JUMPDEST PUSH2 0x2E82 DUP6 DUP3 DUP7 ADD PUSH2 0x2C92 JUMP JUMPDEST SWAP2 POP POP SWAP3 POP SWAP3 SWAP1 POP JUMP JUMPDEST PUSH1 0x0 PUSH1 0x20 DUP3 ADD SWAP1 POP DUP3 DUP3 MSTORE SWAP3 SWAP2 POP POP JUMP JUMPDEST PUSH1 0x0 JUMPDEST DUP4 DUP2 LT ISZERO PUSH2 0x2EBB JUMPI DUP1 DUP3 ADD MLOAD DUP2 DUP5 ADD MSTORE PUSH1 0x20 DUP2 ADD SWAP1 POP PUSH2 0x2EA0 JUMP JUMPDEST POP PUSH1 0x0 DUP4 DUP4 ADD MSTORE POP POP POP JUMP JUMPDEST PUSH1 0x20 DUP2 MSTORE PUSH1 0x0 DUP3 MLOAD DUP1 PUSH1 0x20 DUP5 ADD MSTORE PUSH2 0x2EE6 DUP2 PUSH1 0x40 DUP6 ADD PUSH1 0x20 DUP8 ADD PUSH2 0x2E9D JUMP JUMPDEST PUSH1 0x40 PUSH1 0x1F NOT PUSH1 0x1F DUP4 ADD AND DUP5 ADD ADD SWAP2 POP POP SWAP3 SWAP2 POP POP JUMP JUMPDEST PUSH1 0x0 PUSH1 0x20 DUP3 DUP5 SUB SLT ISZERO PUSH2 0x2F0E JUMPI PUSH1 0x0 DUP1 REVERT JUMPDEST DUP2 CALLDATALOAD PUSH8 0xFFFFFFFFFFFFFFFF DUP2 GT ISZERO PUSH2 0x2F25 JUMPI PUSH1 0x0 DUP1 REVERT JUMPDEST PUSH2 0x2F31 DUP5 DUP3 DUP6 ADD PUSH2 0x2C92 JUMP JUMPDEST SWAP2 POP POP SWAP3 SWAP2 POP POP JUMP JUMPDEST PUSH1 0x0 DUP1 PUSH1 0x0 DUP1 PUSH1 0x0 DUP1 PUSH1 0x0 PUSH1 0xE0 DUP9 DUP11 SUB SLT ISZERO PUSH2 0x2F55 JUMPI PUSH1 0x0 DUP1 REVERT JUMPDEST DUP8 CALLDATALOAD PUSH2 0x2F60 DUP2 PUSH2 0x2C2D JUMP JUMPDEST DUP1 SWAP8 POP POP PUSH1 0x20 DUP9 ADD CALLDATALOAD PUSH8 0xFFFFFFFFFFFFFFFF DUP2 GT ISZERO PUSH2 0x2F7E JUMPI PUSH1 0x0 DUP1 REVERT JUMPDEST PUSH2 0x2F8A DUP11 DUP3 DUP12 ADD PUSH2 0x2C92 JUMP JUMPDEST SWAP7 POP POP PUSH1 0x40 DUP9 ADD CALLDATALOAD SWAP5 POP PUSH1 0x60 DUP9 ADD CALLDATALOAD SWAP4 POP PUSH2 0x2FA7 PUSH1 0x80 DUP10 ADD PUSH2 0x2D04 JUMP JUMPDEST SWAP3 POP PUSH1 0xA0 DUP9 ADD CALLDATALOAD SWAP2 POP PUSH1 0xC0 DUP9 ADD CALLDATALOAD SWAP1 POP SWAP3 SWAP6 SWAP9 SWAP2 SWAP5 SWAP8 POP SWAP3 SWAP6 POP JUMP JUMPDEST PUSH1 0x0 PUSH1 0x20 DUP3 DUP5 SUB SLT ISZERO PUSH2 0x2FD5 JUMPI PUSH1 0x0 DUP1 REVERT JUMPDEST DUP2 CALLDATALOAD PUSH2 0x2FE0 DUP2 PUSH2 0x2C2D JUMP JUMPDEST DUP1 SWAP2 POP POP SWAP3 SWAP2 POP POP JUMP JUMPDEST PUSH1 0x0 PUSH1 0x20 DUP3 ADD SWAP1 POP PUSH12 0xFFFFFFFFFFFFFFFFFFFFFFFF NOT DUP4 AND DUP3 MSTORE SWAP3 SWAP2 POP POP JUMP JUMPDEST PUSH1 0x0 PUSH8 0xFFFFFFFFFFFFFFFF DUP3 GT ISZERO PUSH2 0x3025 JUMPI PUSH2 0x3024 PUSH2 0x2C44 JUMP JUMPDEST JUMPDEST PUSH1 0x20 DUP3 PUSH1 0x5 SHL ADD SWAP1 POP SWAP2 SWAP1 POP JUMP JUMPDEST PUSH1 0x0 DUP2 CALLDATALOAD SWAP1 POP PUSH12 0xFFFFFFFFFFFFFFFFFFFFFFFF NOT DUP2 AND DUP2 EQ PUSH2 0x3054 JUMPI PUSH1 0x0 DUP1 REVERT JUMPDEST SWAP2 SWAP1 POP JUMP JUMPDEST PUSH1 0x0 DUP3 PUSH1 0x1F DUP4 ADD SLT PUSH2 0x306A JUMPI PUSH1 0x0 DUP1 REVERT JUMPDEST DUP2 CALLDATALOAD PUSH1 0x20 PUSH2 0x307F PUSH2 0x307A DUP4 PUSH2 0x300A JUMP JUMPDEST PUSH2 0x2C5A JUMP JUMPDEST DUP1 DUP4 DUP3 MSTORE DUP3 DUP3 ADD SWAP2 POP DUP3 DUP5 PUSH1 0x5 SHL DUP8 ADD ADD SWAP4 POP DUP7 DUP5 GT ISZERO PUSH2 0x309F JUMPI PUSH1 0x0 DUP1 REVERT JUMPDEST DUP3 DUP7 ADD JUMPDEST DUP5 DUP2 LT ISZERO PUSH2 0x30BE JUMPI DUP1 CALLDATALOAD DUP4 MSTORE DUP4 DUP4 ADD SWAP3 POP DUP4 DUP2 ADD SWAP1 POP PUSH2 0x30A3 JUMP JUMPDEST POP DUP1 SWAP5 POP POP POP POP POP SWAP3 SWAP2 POP POP JUMP JUMPDEST PUSH1 0x0 DUP1 PUSH1 0x40 DUP4 DUP6 SUB SLT ISZERO PUSH2 0x30DF JUMPI PUSH1 0x0 DUP1 REVERT JUMPDEST DUP3 CALLDATALOAD PUSH8 0xFFFFFFFFFFFFFFFF DUP1 DUP3 GT ISZERO PUSH2 0x30F7 JUMPI PUSH1 0x0 DUP1 REVERT JUMPDEST DUP2 DUP6 ADD SWAP2 POP DUP6 PUSH1 0x1F DUP4 ADD SLT PUSH2 0x310B JUMPI PUSH1 0x0 DUP1 REVERT JUMPDEST DUP2 CALLDATALOAD PUSH1 0x20 PUSH2 0x3120 PUSH2 0x311B DUP4 PUSH2 0x300A JUMP JUMPDEST PUSH2 0x2C5A JUMP JUMPDEST DUP1 DUP4 DUP3 MSTORE DUP3 DUP3 ADD SWAP2 POP DUP3 DUP5 PUSH1 0x5 SHL DUP8 ADD ADD SWAP4 POP DUP10 DUP5 GT ISZERO PUSH2 0x3140 JUMPI PUSH1 0x0 DUP1 REVERT JUMPDEST DUP3 DUP7 ADD SWAP6 POP JUMPDEST DUP4 DUP7 LT ISZERO PUSH2 0x3168 JUMPI PUSH2 0x3157 DUP7 PUSH2 0x3033 JUMP JUMPDEST DUP3 MSTORE DUP3 DUP3 ADD SWAP2 POP DUP3 DUP7 ADD SWAP6 POP PUSH2 0x3146 JUMP JUMPDEST DUP1 SWAP8 POP POP POP DUP1 DUP8 ADD CALLDATALOAD SWAP4 POP POP POP DUP1 DUP3 GT ISZERO PUSH2 0x3182 JUMPI PUSH1 0x0 DUP1 REVERT JUMPDEST POP PUSH2 0x318F DUP6 DUP3 DUP7 ADD PUSH2 0x3059 JUMP JUMPDEST SWAP2 POP POP SWAP3 POP SWAP3 SWAP1 POP JUMP JUMPDEST PUSH1 0x0 PUSH1 0x20 DUP3 DUP5 SUB SLT ISZERO PUSH2 0x31AB JUMPI PUSH1 0x0 DUP1 REVERT JUMPDEST PUSH2 0x31B4 DUP3 PUSH2 0x3033 JUMP JUMPDEST SWAP1 POP SWAP3 SWAP2 POP POP JUMP JUMPDEST PUSH4 0x4E487B71 PUSH1 0xE0 SHL PUSH1 0x0 MSTORE PUSH1 0x11 PUSH1 0x4 MSTORE PUSH1 0x24 PUSH1 0x0 REVERT JUMPDEST PUSH1 0x0 DUP3 DUP3 MUL SWAP1 POP DUP2 DUP2 DIV DUP4 EQ DUP3 ISZERO OR PUSH2 0x31EE JUMPI PUSH2 0x31ED PUSH2 0x31BC JUMP JUMPDEST JUMPDEST SWAP3 SWAP2 POP POP JUMP JUMPDEST PUSH1 0x0 DUP3 PUSH2 0x3211 JUMPI PUSH4 0x4E487B71 PUSH1 0xE0 SHL PUSH1 0x0 MSTORE PUSH1 0x12 PUSH1 0x4 MSTORE PUSH1 0x24 PUSH1 0x0 REVERT JUMPDEST DUP3 DUP3 DIV SWAP1 POP SWAP3 SWAP2 POP POP JUMP JUMPDEST PUSH1 0x0 PUSH1 0x80 DUP3 ADD SWAP1 POP PUSH1 0x1 DUP1 PUSH1 0xA0 SHL SUB DUP7 AND DUP3 MSTORE DUP5 PUSH1 0x20 DUP4 ADD MSTORE DUP4 PUSH1 0x40 DUP4 ADD MSTORE DUP3 PUSH1 0x60 DUP4 ADD MSTORE SWAP6 SWAP5 POP POP POP POP POP JUMP JUMPDEST DUP3 DUP2 MSTORE DUP2 PUSH1 0x20 DUP3 ADD MSTORE PUSH1 0x0 PUSH1 0x40 DUP3 ADD SWAP1 POP SWAP4 SWAP3 POP POP POP JUMP JUMPDEST PUSH1 0x0 DUP2 PUSH1 0x1 SHR SWAP1 POP PUSH1 0x1 DUP3 AND DUP1 PUSH2 0x327A JUMPI PUSH1 0x7F DUP3 AND SWAP2 POP JUMPDEST PUSH1 0x20 DUP3 LT DUP2 SUB PUSH2 0x329A JUMPI PUSH4 0x4E487B71 PUSH1 0xE0 SHL PUSH1 0x0 MSTORE PUSH1 0x22 PUSH1 0x4 MSTORE PUSH1 0x24 PUSH1 0x0 REVERT JUMPDEST POP SWAP2 SWAP1 POP JUMP JUMPDEST PUSH1 0x0 DUP2 MLOAD PUSH2 0x32B2 DUP2 DUP6 PUSH1 0x20 DUP7 ADD PUSH2 0x2E9D JUMP JUMPDEST DUP1 DUP5 ADD SWAP2 POP POP SWAP3 SWAP2 POP POP JUMP JUMPDEST PUSH1 0x0 DUP3 MLOAD PUSH2 0x32D0 DUP2 DUP5 PUSH1 0x20 DUP8 ADD PUSH2 0x2E9D JUMP JUMPDEST DUP1 DUP4 ADD SWAP2 POP POP SWAP3 SWAP2 POP POP JUMP JUMPDEST PUSH1 0x0 PUSH1 0x20 DUP3 DUP5 SUB SLT ISZERO PUSH2 0x32EE JUMPI PUSH1 0x0 DUP1 REVERT JUMPDEST DUP2 MLOAD SWAP1 POP SWAP3 SWAP2 POP POP JUMP JUMPDEST DUP2 DUP2 MSTORE PUSH1 0x0 PUSH1 0x20 DUP3 ADD SWAP1 POP SWAP3 SWAP2 POP POP JUMP JUMPDEST PUSH1 0x0 PUSH1 0x80 DUP3 ADD SWAP1 POP DUP6 DUP3 MSTORE PUSH1 0xFF DUP6 AND PUSH1 0x20 DUP4 ADD MSTORE DUP4 PUSH1 0x40 DUP4 ADD MSTORE DUP3 PUSH1 0x60 DUP4 ADD MSTORE SWAP6 SWAP5 POP POP POP POP POP JUMP JUMPDEST PUSH1 0x0 PUSH1 0xFF DUP4 AND PUSH1 0xFF DUP4 AND MUL PUSH1 0xFF DUP2 AND SWAP2 POP DUP1 DUP3 EQ PUSH2 0x3353 JUMPI PUSH2 0x3352 PUSH2 0x31BC JUMP JUMPDEST JUMPDEST POP SWAP3 SWAP2 POP POP JUMP JUMPDEST PUSH1 0x0 PUSH1 0xFF DUP4 AND PUSH1 0xFF DUP4 AND ADD SWAP1 POP PUSH1 0xFF DUP2 GT ISZERO PUSH2 0x3379 JUMPI PUSH2 0x3378 PUSH2 0x31BC JUMP JUMPDEST JUMPDEST SWAP3 SWAP2 POP POP JUMP JUMPDEST DUP1 PUSH1 0x0 MSTORE POP PUSH1 0x0 PUSH1 0x20 PUSH1 0x0 KECCAK256 SWAP1 POP SWAP1 JUMP JUMPDEST PUSH1 0x0 PUSH1 0xFF PUSH1 0xF8 SHL DUP1 DUP10 PUSH1 0xF8 SHL AND DUP4 MSTORE PUSH1 0x1 PUSH8 0xFFFFFFFFFFFFFFFF NOT DUP10 AND DUP2 DUP6 ADD MSTORE DUP2 DUP9 PUSH1 0xF8 SHL AND PUSH1 0x19 DUP6 ADD MSTORE PUSH1 0x1A SWAP2 POP PUSH1 0x0 DUP8 SLOAD DUP2 DUP2 DUP5 SHR SWAP1 POP DUP4 DUP3 AND DUP1 PUSH2 0x33D9 JUMPI PUSH1 0x7F DUP3 AND SWAP2 POP JUMPDEST PUSH1 0x20 DUP1 DUP4 LT DUP3 SUB PUSH2 0x33F8 JUMPI PUSH4 0x4E487B71 PUSH1 0xE0 SHL DUP6 MSTORE PUSH1 0x22 PUSH1 0x4 MSTORE PUSH1 0x24 DUP6 REVERT JUMPDEST DUP2 PUSH1 0x0 DUP2 EQ PUSH2 0x340E JUMPI PUSH1 0x1 DUP2 EQ PUSH2 0x3427 JUMPI PUSH2 0x345C JUMP JUMPDEST PUSH1 0xFF NOT DUP6 AND DUP9 DUP12 ADD MSTORE DUP8 DUP5 ISZERO ISZERO DUP6 MUL DUP12 ADD ADD SWAP6 POP PUSH2 0x345C JUMP JUMPDEST PUSH2 0x3430 DUP14 PUSH2 0x337F JUMP JUMPDEST PUSH1 0x0 JUMPDEST DUP6 DUP2 LT ISZERO PUSH2 0x3452 JUMPI DUP2 SLOAD DUP11 DUP3 DUP15 ADD ADD MSTORE DUP9 DUP3 ADD SWAP2 POP DUP4 DUP2 ADD SWAP1 POP PUSH2 0x3433 JUMP JUMPDEST POP POP DUP8 DUP5 DUP12 ADD ADD SWAP6 POP JUMPDEST POP POP POP POP POP PUSH2 0x3474 PUSH2 0x346E DUP3 DUP10 PUSH2 0x32A0 JUMP JUMPDEST DUP8 PUSH2 0x32A0 JUMP JUMPDEST SWAP4 POP POP POP POP SWAP8 SWAP7 POP POP POP POP POP POP POP JUMP JUMPDEST PUSH4 0x4E487B71 PUSH1 0xE0 SHL PUSH1 0x0 MSTORE PUSH1 0x32 PUSH1 0x4 MSTORE PUSH1 0x24 PUSH1 0x0 REVERT JUMPDEST PUSH1 0x0 DUP1 NOT DUP3 SUB PUSH2 0x34AD JUMPI PUSH2 0x34AC PUSH2 0x31BC JUMP JUMPDEST JUMPDEST PUSH1 0x1 DUP3 ADD SWAP1 POP SWAP2 SWAP1 POP JUMP JUMPDEST PUSH1 0x0 DUP3 DUP3 ADD SWAP1 POP DUP1 DUP3 GT ISZERO PUSH2 0x34D0 JUMPI PUSH2 0x34CF PUSH2 0x31BC JUMP JUMPDEST JUMPDEST SWAP3 SWAP2 POP POP JUMP JUMPDEST PUSH1 0xFF PUSH1 0xF8 SHL DUP4 PUSH1 0xF8 SHL AND DUP2 MSTORE DUP2 PUSH1 0x1 DUP3 ADD MSTORE PUSH1 0x0 PUSH1 0x21 DUP3 ADD SWAP1 POP SWAP4 SWAP3 POP POP POP JUMP JUMPDEST PUSH1 0x0 DUP3 DUP3 SUB SWAP1 POP DUP2 DUP2 GT ISZERO PUSH2 0x350F JUMPI PUSH2 0x350E PUSH2 0x31BC JUMP JUMPDEST JUMPDEST SWAP3 SWAP2 POP POP JUMP INVALID LOG2 PUSH5 0x6970667358 0x22 SLT KECCAK256 0xEE PUSH0 DUP5 KECCAK256 0xDB PUSH30 0xC535C382C61979F28AB41706C21BA0548CDA5712D66EE4BA99EE64736F6C PUSH4 0x43000814 STOP CALLER "},"methodIdentifiers":{"LEAP_YEAR_IN_SECONDS()":"67bb0f95","YEAR_IN_SECONDS()":"7847ea53","balances(bytes20)":"f2113dc9","calcHash256(bytes)":"7b99c36d","calculateAddressString(address)":"a12a1b9f","claim(address,bytes,bytes32,bytes32,uint8,bytes32,bytes32)":"069df228","claimMessageMatchesSignature(address,bytes,bytes32,bytes32,uint8,bytes32,bytes32)":"8019f8d2","createClaimMessage(address,bytes)":"951e3c3b","deploymentTimestamp()":"bfc12c05","dilute1()":"5b33bef3","dilute2()":"9365fe0b","dilute3()":"4e2ac9bf","dilute_s1_75_timestamp()":"e20fb74f","dilute_s2_50_timestamp()":"31b4cd47","dilute_s3_0_timestamp()":"8c86a100","dilution_s1_75_executed()":"1b17d9a8","dilution_s2_50_executed()":"64e7c23a","dilution_s3_0_executed()":"fa4ee75a","fill(bytes20[],uint256[])":"f07e60a8","getCurrentDilutedClaimFactor()":"2e5b7458","getDilutionTimestamp1()":"b28297f8","getDilutionTimestamp2()":"6a01acad","getDilutionTimestamp3()":"84f0145e","getHashForClaimMessage(address,bytes)":"34945f46","lateClaimBeneficorAddressDAO()":"18b46f58","lateClaimBeneficorAddressReinsertPot()":"0be89cc4","prefixStr()":"5e3eabaa","pubKeyToEthAddress(bytes32,bytes32)":"30c1a785","publicKeyToBitcoinAddress(bytes32,bytes32)":"e77b9d9b"}}}}}